1111001001070000001070080000081000000040\054\04200\134\146\000\000\000\000\000\000\000\00000100
AdjustReference.hst
\101\144\152\165\163\164\122\145\146\145\162\145\156\143\145\056\143\163\166
\000101\000144\000152\000165\000163\000164\000122\000145\000146\000145\000162\000145\000156\000143\000145
AUTO_DATE000                   0010010001000000100500000000010020000000AUTO_DATE000
AUTO_PAGE002                   0020010001000000100400000000010010000000AUTO_PAGE002
AUTO_PAGE001                   0030010001000000100400000000010000000000AUTO_PAGE001
CENTER_ID                      0040010001000000101201000000010030000000
CENTER_NAME                    0050010002000000101201000000010040000000
USER                           0060010003000000101201000000010050000000
USER_NAME                      0070010004000000101201000000010060000000
TAB_1                          0080010005002410001300000000010070000000TABLE001
TAB_1                          0080020005002409901300000000010070000000TABLE001
TAB_1                          0080030005002409801300000000010070000000TABLE001
TAB_1                          0080040005002409701300000000010070000000TABLE001
TAB_1                          0080050005002409601300000000010070000000TABLE001
TAB_1                          0080060005002409501300000000010070000000TABLE001
TAB_1                          0080070005002409401300000000010070000000TABLE001
TAB_1                          0080080005002409301300000000010070000000TABLE001
TAB_1                          0080090005002409201300000000010070000000TABLE001
TAB_1                          0080100005002409101300000000010070000000TABLE001
TAB_1                          0080110005002409001300000000010070000000TABLE001
TAB_1                          0080120005002408901300000000010070000000TABLE001
TAB_1                          0080130005002408801300000000010070000000TABLE001
TAB_1                          0080140005002408701300000000010070000000TABLE001
TAB_1                          0080150005002408601300000000010070000000TABLE001
TAB_1                          0080160005002408501300000000010070000000TABLE001
TAB_1                          0080170005002408401300000000010070000000TABLE001
TAB_1                          0080180005002408301300000000010070000000TABLE001
TAB_1                          0080190005002408201300000000010070000000TABLE001
TAB_1                          0080200005002408101300000000010070000000TABLE001
TAB_1                          0080210005002408001300000000010070000000TABLE001
TAB_1                          0080220005002407901300000000010070000000TABLE001
TAB_1                          0080230005002407801300000000010070000000TABLE001
TAB_1                          0080240005002407701300000000010070000000TABLE001
TAB_1                          0080250005002407601300000000010070000000TABLE001
TAB_1                          0080260005002407501300000000010070000000TABLE001
TAB_1                          0080270005002407401300000000010070000000TABLE001
TAB_1                          0080280005002407301300000000010070000000TABLE001
TAB_1                          0080290005002407201300000000010070000000TABLE001
TAB_1                          0080300005002407101300000000010070000000TABLE001
TAB_1                          0080310005002407001300000000010070000000TABLE001
TAB_1                          0080320005002406901300000000010070000000TABLE001
TAB_1                          0080330005002406801300000000010070000000TABLE001
TAB_1                          0080340005002406701300000000010070000000TABLE001
TAB_1                          0080350005002406601300000000010070000000TABLE001
TAB_1                          0080360005002406501300000000010070000000TABLE001
TAB_1                          0080370005002406401300000000010070000000TABLE001
TAB_1                          0080380005002406301300000000010070000000TABLE001
TAB_1                          0080390005002406201300000000010070000000TABLE001
TAB_1                          0080400005002406101300000000010070000000TABLE001
TAB_1                          0080410005002406001300000000010070000000TABLE001
TAB_1                          0080420005002405901300000000010070000000TABLE001
TAB_1                          0080430005002405801300000000010070000000TABLE001
TAB_1                          0080440005002405701300000000010070000000TABLE001
TAB_1                          0080450005002405601300000000010070000000TABLE001
TAB_1                          0080460005002405501300000000010070000000TABLE001
TAB_1                          0080470005002405401300000000010070000000TABLE001
TAB_1                          0080480005002405301300000000010070000000TABLE001
TAB_1                          0080490005002405201300000000010070000000TABLE001
TAB_1                          0080500005002405101300000000010070000000TABLE001
TAB_1                          0080510005002405001300000000010070000000TABLE001
TAB_1                          0080520005002404901300000000010070000000TABLE001
TAB_1                          0080530005002404801300000000010070000000TABLE001
TAB_1                          0080540005002404701300000000010070000000TABLE001
TAB_1                          0080550005002404601300000000010070000000TABLE001
TAB_1                          0080560005002404501300000000010070000000TABLE001
TAB_1                          0080570005002404401300000000010070000000TABLE001
TAB_1                          0080580005002404301300000000010070000000TABLE001
TAB_1                          0080590005002404201300000000010070000000TABLE001
TAB_1                          0080600005002404101300000000010070000000TABLE001
TAB_1                          0080610005002404001300000000010070000000TABLE001
TAB_1                          0080620005002403901300000000010070000000TABLE001
TAB_1                          0080630005002403801300000000010070000000TABLE001
TAB_1                          0080640005002403701300000000010070000000TABLE001
TAB_1                          0080650005002403601300000000010070000000TABLE001
TAB_1                          0080660005002403501300000000010070000000TABLE001
TAB_1                          0080670005002403401300000000010070000000TABLE001
TAB_1                          0080680005002403301300000000010070000000TABLE001
TAB_1                          0080690005002403201300000000010070000000TABLE001
TAB_1                          0080700005002403101300000000010070000000TABLE001
TAB_1                          0080710005002403001300000000010070000000TABLE001
TAB_1                          0080720005002402901300000000010070000000TABLE001
TAB_1                          0080730005002402801300000000010070000000TABLE001
TAB_1                          0080740005002402701300000000010070000000TABLE001
TAB_1                          0080750005002402601300000000010070000000TABLE001
TAB_1                          0080760005002402501300000000010070000000TABLE001
TAB_1                          0080770005002402401300000000010070000000TABLE001
TAB_1                          0080780005002402301300000000010070000000TABLE001
TAB_1                          0080790005002402201300000000010070000000TABLE001
TAB_1                          0080800005002402101300000000010070000000TABLE001
TAB_1                          0080810005002402001300000000010070000000TABLE001
TAB_1                          0080820005002401901300000000010070000000TABLE001
TAB_1                          0080830005002401801300000000010070000000TABLE001
TAB_1                          0080840005002401701300000000010070000000TABLE001
TAB_1                          0080850005002401601300000000010070000000TABLE001
TAB_1                          0080860005002401501300000000010070000000TABLE001
TAB_1                          0080870005002401401300000000010070000000TABLE001
TAB_1                          0080880005002401301300000000010070000000TABLE001
TAB_1                          0080890005002401201300000000010070000000TABLE001
TAB_1                          0080900005002401101300000000010070000000TABLE001
TAB_1                          0080910005002401001300000000010070000000TABLE001
TAB_1                          0080920005002400901300000000010070000000TABLE001
TAB_1                          0080930005002400801300000000010070000000TABLE001
TAB_1                          0080940005002400701300000000010070000000TABLE001
TAB_1                          0080950005002400601300000000010070000000TABLE001
TAB_1                          0080960005002400501300000000010070000000TABLE001
TAB_1                          0080970005002400401300000000010070000000TABLE001
TAB_1                          0080980005002400301300000000010070000000TABLE001
TAB_1                          0080990005002400201300000000010070000000TABLE001
TAB_1                          0081000005002400101300000000010070000000TABLE001
