1111001001050000001050060000061000000022\054\04200\000\000\000\000\000\000\000\000\000\00000100
BtoBReference.hst
\102\164\157\102\122\145\146\145\162\145\156\143\145\056\143\163\166

AUTO_PAGE001                   0010010001000000100400000000010020000000AUTO_PAGE001
AUTO_DATE000                   0020010001000000100500000000010010000000AUTO_DATE000
AUTO_PAGE002                   0030010001000000100400000000010000000000AUTO_PAGE002
TAB_1                          0040010001002210001300000000010050000000TABLE001
USER_ID                        0050010004000000101201000000010030000000
USER_NAME                      0060010005000000101201000000010040000000
TAB_1                          0040020001002209901300000000010050000000TABLE001
TAB_1                          0040030001002209801300000000010050000000TABLE001
TAB_1                          0040040001002209701300000000010050000000TABLE001
TAB_1                          0040050001002209601300000000010050000000TABLE001
TAB_1                          0040060001002209501300000000010050000000TABLE001
TAB_1                          0040070001002209401300000000010050000000TABLE001
TAB_1                          0040080001002209301300000000010050000000TABLE001
TAB_1                          0040090001002209201300000000010050000000TABLE001
TAB_1                          0040100001002209101300000000010050000000TABLE001
TAB_1                          0040110001002209001300000000010050000000TABLE001
TAB_1                          0040120001002208901300000000010050000000TABLE001
TAB_1                          0040130001002208801300000000010050000000TABLE001
TAB_1                          0040140001002208701300000000010050000000TABLE001
TAB_1                          0040150001002208601300000000010050000000TABLE001
TAB_1                          0040160001002208501300000000010050000000TABLE001
TAB_1                          0040170001002208401300000000010050000000TABLE001
TAB_1                          0040180001002208301300000000010050000000TABLE001
TAB_1                          0040190001002208201300000000010050000000TABLE001
TAB_1                          0040200001002208101300000000010050000000TABLE001
TAB_1                          0040210001002208001300000000010050000000TABLE001
TAB_1                          0040220001002207901300000000010050000000TABLE001
TAB_1                          0040230001002207801300000000010050000000TABLE001
TAB_1                          0040240001002207701300000000010050000000TABLE001
TAB_1                          0040250001002207601300000000010050000000TABLE001
TAB_1                          0040260001002207501300000000010050000000TABLE001
TAB_1                          0040270001002207401300000000010050000000TABLE001
TAB_1                          0040280001002207301300000000010050000000TABLE001
TAB_1                          0040290001002207201300000000010050000000TABLE001
TAB_1                          0040300001002207101300000000010050000000TABLE001
TAB_1                          0040310001002207001300000000010050000000TABLE001
TAB_1                          0040320001002206901300000000010050000000TABLE001
TAB_1                          0040330001002206801300000000010050000000TABLE001
TAB_1                          0040340001002206701300000000010050000000TABLE001
TAB_1                          0040350001002206601300000000010050000000TABLE001
TAB_1                          0040360001002206501300000000010050000000TABLE001
TAB_1                          0040370001002206401300000000010050000000TABLE001
TAB_1                          0040380001002206301300000000010050000000TABLE001
TAB_1                          0040390001002206201300000000010050000000TABLE001
TAB_1                          0040400001002206101300000000010050000000TABLE001
TAB_1                          0040410001002206001300000000010050000000TABLE001
TAB_1                          0040420001002205901300000000010050000000TABLE001
TAB_1                          0040430001002205801300000000010050000000TABLE001
TAB_1                          0040440001002205701300000000010050000000TABLE001
TAB_1                          0040450001002205601300000000010050000000TABLE001
TAB_1                          0040460001002205501300000000010050000000TABLE001
TAB_1                          0040470001002205401300000000010050000000TABLE001
TAB_1                          0040480001002205301300000000010050000000TABLE001
TAB_1                          0040490001002205201300000000010050000000TABLE001
TAB_1                          0040500001002205101300000000010050000000TABLE001
TAB_1                          0040510001002205001300000000010050000000TABLE001
TAB_1                          0040520001002204901300000000010050000000TABLE001
TAB_1                          0040530001002204801300000000010050000000TABLE001
TAB_1                          0040540001002204701300000000010050000000TABLE001
TAB_1                          0040550001002204601300000000010050000000TABLE001
TAB_1                          0040560001002204501300000000010050000000TABLE001
TAB_1                          0040570001002204401300000000010050000000TABLE001
TAB_1                          0040580001002204301300000000010050000000TABLE001
TAB_1                          0040590001002204201300000000010050000000TABLE001
TAB_1                          0040600001002204101300000000010050000000TABLE001
TAB_1                          0040610001002204001300000000010050000000TABLE001
TAB_1                          0040620001002203901300000000010050000000TABLE001
TAB_1                          0040630001002203801300000000010050000000TABLE001
TAB_1                          0040640001002203701300000000010050000000TABLE001
TAB_1                          0040650001002203601300000000010050000000TABLE001
TAB_1                          0040660001002203501300000000010050000000TABLE001
TAB_1                          0040670001002203401300000000010050000000TABLE001
TAB_1                          0040680001002203301300000000010050000000TABLE001
TAB_1                          0040690001002203201300000000010050000000TABLE001
TAB_1                          0040700001002203101300000000010050000000TABLE001
TAB_1                          0040710001002203001300000000010050000000TABLE001
TAB_1                          0040720001002202901300000000010050000000TABLE001
TAB_1                          0040730001002202801300000000010050000000TABLE001
TAB_1                          0040740001002202701300000000010050000000TABLE001
TAB_1                          0040750001002202601300000000010050000000TABLE001
TAB_1                          0040760001002202501300000000010050000000TABLE001
TAB_1                          0040770001002202401300000000010050000000TABLE001
TAB_1                          0040780001002202301300000000010050000000TABLE001
TAB_1                          0040790001002202201300000000010050000000TABLE001
TAB_1                          0040800001002202101300000000010050000000TABLE001
TAB_1                          0040810001002202001300000000010050000000TABLE001
TAB_1                          0040820001002201901300000000010050000000TABLE001
TAB_1                          0040830001002201801300000000010050000000TABLE001
TAB_1                          0040840001002201701300000000010050000000TABLE001
TAB_1                          0040850001002201601300000000010050000000TABLE001
TAB_1                          0040860001002201501300000000010050000000TABLE001
TAB_1                          0040870001002201401300000000010050000000TABLE001
TAB_1                          0040880001002201301300000000010050000000TABLE001
TAB_1                          0040890001002201201300000000010050000000TABLE001
TAB_1                          0040900001002201101300000000010050000000TABLE001
TAB_1                          0040910001002201001300000000010050000000TABLE001
TAB_1                          0040920001002200901300000000010050000000TABLE001
TAB_1                          0040930001002200801300000000010050000000TABLE001
TAB_1                          0040940001002200701300000000010050000000TABLE001
TAB_1                          0040950001002200601300000000010050000000TABLE001
TAB_1                          0040960001002200501300000000010050000000TABLE001
TAB_1                          0040970001002200401300000000010050000000TABLE001
TAB_1                          0040980001002200301300000000010050000000TABLE001
TAB_1                          0040990001002200201300000000010050000000TABLE001
TAB_1                          0041000001002200101300000000010050000000TABLE001
