1110000001070000001070090000091000000021\054\04200\134\146\000\000\000\000\000\000\000\00000100
CaseShipPicking_Store.hst
\103\141\163\145\123\150\151\160\120\151\143\153\151\156\147\137\163\164\157\162\145\056\143\163\166
\030261\030374\030271\050772\101567\000040\030261\030374\030271\030324\030303\030255\030363\030260\030352\030271\030310
AUTO_DATE000                   0010010001000000100500000000010020000000AUTO_DATE000
AUTO_PAGE001                   0020010001000000100400000000010010000000AUTO_PAGE001
AUTO_PAGE002                   0030010001000000100400000000010000000000AUTO_PAGE002
CENTER                         0040020001000000101201000000010030000000
TAB_1                          0050020001001209901300000000010080000000TABLE01
BATCH_NO                       0060020002000000101201000000010040000000
BATCH_NAME                     0070020003000000101201000000010050000000
AREA                           0080020004000000101201000000010060000000
USER                           0090020007000000101201000000010070000000
TAB_1                          0050030001001209801300000000010080000000TABLE01
TAB_1                          0050040001001209701300000000010080000000TABLE01
TAB_1                          0050050001001209601300000000010080000000TABLE01
TAB_1                          0050060001001209501300000000010080000000TABLE01
TAB_1                          0050070001001209401300000000010080000000TABLE01
TAB_1                          0050080001001209301300000000010080000000TABLE01
TAB_1                          0050090001001209201300000000010080000000TABLE01
TAB_1                          0050100001001209101300000000010080000000TABLE01
TAB_1                          0050110001001209001300000000010080000000TABLE01
TAB_1                          0050120001001208901300000000010080000000TABLE01
TAB_1                          0050130001001208801300000000010080000000TABLE01
TAB_1                          0050140001001208701300000000010080000000TABLE01
TAB_1                          0050150001001208601300000000010080000000TABLE01
TAB_1                          0050160001001208501300000000010080000000TABLE01
TAB_1                          0050170001001208401300000000010080000000TABLE01
TAB_1                          0050180001001208301300000000010080000000TABLE01
TAB_1                          0050190001001208201300000000010080000000TABLE01
TAB_1                          0050200001001208101300000000010080000000TABLE01
TAB_1                          0050210001001208001300000000010080000000TABLE01
TAB_1                          0050220001001207901300000000010080000000TABLE01
TAB_1                          0050230001001207801300000000010080000000TABLE01
TAB_1                          0050240001001207701300000000010080000000TABLE01
TAB_1                          0050250001001207601300000000010080000000TABLE01
TAB_1                          0050260001001207501300000000010080000000TABLE01
TAB_1                          0050270001001207401300000000010080000000TABLE01
TAB_1                          0050280001001207301300000000010080000000TABLE01
TAB_1                          0050290001001207201300000000010080000000TABLE01
TAB_1                          0050300001001207101300000000010080000000TABLE01
TAB_1                          0050310001001207001300000000010080000000TABLE01
TAB_1                          0050320001001206901300000000010080000000TABLE01
TAB_1                          0050330001001206801300000000010080000000TABLE01
TAB_1                          0050340001001206701300000000010080000000TABLE01
TAB_1                          0050350001001206601300000000010080000000TABLE01
TAB_1                          0050360001001206501300000000010080000000TABLE01
TAB_1                          0050370001001206401300000000010080000000TABLE01
TAB_1                          0050380001001206301300000000010080000000TABLE01
TAB_1                          0050390001001206201300000000010080000000TABLE01
TAB_1                          0050400001001206101300000000010080000000TABLE01
TAB_1                          0050410001001206001300000000010080000000TABLE01
TAB_1                          0050420001001205901300000000010080000000TABLE01
TAB_1                          0050430001001205801300000000010080000000TABLE01
TAB_1                          0050440001001205701300000000010080000000TABLE01
TAB_1                          0050450001001205601300000000010080000000TABLE01
TAB_1                          0050460001001205501300000000010080000000TABLE01
TAB_1                          0050470001001205401300000000010080000000TABLE01
TAB_1                          0050480001001205301300000000010080000000TABLE01
TAB_1                          0050490001001205201300000000010080000000TABLE01
TAB_1                          0050500001001205101300000000010080000000TABLE01
TAB_1                          0050510001001205001300000000010080000000TABLE01
TAB_1                          0050520001001204901300000000010080000000TABLE01
TAB_1                          0050530001001204801300000000010080000000TABLE01
TAB_1                          0050540001001204701300000000010080000000TABLE01
TAB_1                          0050550001001204601300000000010080000000TABLE01
TAB_1                          0050560001001204501300000000010080000000TABLE01
TAB_1                          0050570001001204401300000000010080000000TABLE01
TAB_1                          0050580001001204301300000000010080000000TABLE01
TAB_1                          0050590001001204201300000000010080000000TABLE01
TAB_1                          0050600001001204101300000000010080000000TABLE01
TAB_1                          0050610001001204001300000000010080000000TABLE01
TAB_1                          0050620001001203901300000000010080000000TABLE01
TAB_1                          0050630001001203801300000000010080000000TABLE01
TAB_1                          0050640001001203701300000000010080000000TABLE01
TAB_1                          0050650001001203601300000000010080000000TABLE01
TAB_1                          0050660001001203501300000000010080000000TABLE01
TAB_1                          0050670001001203401300000000010080000000TABLE01
TAB_1                          0050680001001203301300000000010080000000TABLE01
TAB_1                          0050690001001203201300000000010080000000TABLE01
TAB_1                          0050700001001203101300000000010080000000TABLE01
TAB_1                          0050710001001203001300000000010080000000TABLE01
TAB_1                          0050720001001202901300000000010080000000TABLE01
TAB_1                          0050730001001202801300000000010080000000TABLE01
TAB_1                          0050740001001202701300000000010080000000TABLE01
TAB_1                          0050750001001202601300000000010080000000TABLE01
TAB_1                          0050760001001202501300000000010080000000TABLE01
TAB_1                          0050770001001202401300000000010080000000TABLE01
TAB_1                          0050780001001202301300000000010080000000TABLE01
TAB_1                          0050790001001202201300000000010080000000TABLE01
TAB_1                          0050800001001202101300000000010080000000TABLE01
TAB_1                          0050810001001202001300000000010080000000TABLE01
TAB_1                          0050820001001201901300000000010080000000TABLE01
TAB_1                          0050830001001201801300000000010080000000TABLE01
TAB_1                          0050840001001201701300000000010080000000TABLE01
TAB_1                          0050850001001201601300000000010080000000TABLE01
TAB_1                          0050860001001201501300000000010080000000TABLE01
TAB_1                          0050870001001201401300000000010080000000TABLE01
TAB_1                          0050880001001201301300000000010080000000TABLE01
TAB_1                          0050890001001201201300000000010080000000TABLE01
TAB_1                          0050900001001201101300000000010080000000TABLE01
TAB_1                          0050910001001201001300000000010080000000TABLE01
TAB_1                          0050920001001200901300000000010080000000TABLE01
TAB_1                          0050930001001200801300000000010080000000TABLE01
TAB_1                          0050940001001200701300000000010080000000TABLE01
TAB_1                          0050950001001200601300000000010080000000TABLE01
TAB_1                          0050960001001200501300000000010080000000TABLE01
TAB_1                          0050970001001200401300000000010080000000TABLE01
TAB_1                          0050980001001200301300000000010080000000TABLE01
TAB_1                          0050990001001200201300000000010080000000TABLE01
TAB_1                          0051000001001200101300000000010080000000TABLE01
