1110000001040000001040060000061000000020\054\04200\134\146\000\000\000\000\000\000\000\00000100
CaseShipList.hst
\203\120\201\133\203\130\217\157\211\327\203\157\203\142\203\140\210\352\227\227\055\060\060\065\055\062\060\062\060\060\065\062\065\055\061\066\063\066\063\067\056\143\163\166
\030261\030374\030271\050772\101567\030320\030303\030301\047000\104647
AUTO_DATE000                   0010010001000000100500000000010020000000AUTO_DATE000
AUTO_PAGE001                   0020010001000000100400000000010010000000AUTO_PAGE001
AUTO_PAGE002                   0030010001000000100400000000010000000000AUTO_PAGE002
CENTER                         0040020001000000101201000000010030000000CENTER
TAB_1                          0050020001000909901300000000010050000000TABLE01
USER                           0060020004000000101201000000010040000000USER
TAB_1                          0050030001000909801300000000010050000000TABLE01
TAB_1                          0050040001000909701300000000010050000000TABLE01
TAB_1                          0050050001000909601300000000010050000000TABLE01
TAB_1                          0050060001000909501300000000010050000000TABLE01
TAB_1                          0050070001000909401300000000010050000000TABLE01
TAB_1                          0050080001000909301300000000010050000000TABLE01
TAB_1                          0050090001000909201300000000010050000000TABLE01
TAB_1                          0050100001000909101300000000010050000000TABLE01
TAB_1                          0050110001000909001300000000010050000000TABLE01
TAB_1                          0050120001000908901300000000010050000000TABLE01
TAB_1                          0050130001000908801300000000010050000000TABLE01
TAB_1                          0050140001000908701300000000010050000000TABLE01
TAB_1                          0050150001000908601300000000010050000000TABLE01
TAB_1                          0050160001000908501300000000010050000000TABLE01
TAB_1                          0050170001000908401300000000010050000000TABLE01
TAB_1                          0050180001000908301300000000010050000000TABLE01
TAB_1                          0050190001000908201300000000010050000000TABLE01
TAB_1                          0050200001000908101300000000010050000000TABLE01
TAB_1                          0050210001000908001300000000010050000000TABLE01
TAB_1                          0050220001000907901300000000010050000000TABLE01
TAB_1                          0050230001000907801300000000010050000000TABLE01
TAB_1                          0050240001000907701300000000010050000000TABLE01
TAB_1                          0050250001000907601300000000010050000000TABLE01
TAB_1                          0050260001000907501300000000010050000000TABLE01
TAB_1                          0050270001000907401300000000010050000000TABLE01
TAB_1                          0050280001000907301300000000010050000000TABLE01
TAB_1                          0050290001000907201300000000010050000000TABLE01
TAB_1                          0050300001000907101300000000010050000000TABLE01
TAB_1                          0050310001000907001300000000010050000000TABLE01
TAB_1                          0050320001000906901300000000010050000000TABLE01
TAB_1                          0050330001000906801300000000010050000000TABLE01
TAB_1                          0050340001000906701300000000010050000000TABLE01
TAB_1                          0050350001000906601300000000010050000000TABLE01
TAB_1                          0050360001000906501300000000010050000000TABLE01
TAB_1                          0050370001000906401300000000010050000000TABLE01
TAB_1                          0050380001000906301300000000010050000000TABLE01
TAB_1                          0050390001000906201300000000010050000000TABLE01
TAB_1                          0050400001000906101300000000010050000000TABLE01
TAB_1                          0050410001000906001300000000010050000000TABLE01
TAB_1                          0050420001000905901300000000010050000000TABLE01
TAB_1                          0050430001000905801300000000010050000000TABLE01
TAB_1                          0050440001000905701300000000010050000000TABLE01
TAB_1                          0050450001000905601300000000010050000000TABLE01
TAB_1                          0050460001000905501300000000010050000000TABLE01
TAB_1                          0050470001000905401300000000010050000000TABLE01
TAB_1                          0050480001000905301300000000010050000000TABLE01
TAB_1                          0050490001000905201300000000010050000000TABLE01
TAB_1                          0050500001000905101300000000010050000000TABLE01
TAB_1                          0050510001000905001300000000010050000000TABLE01
TAB_1                          0050520001000904901300000000010050000000TABLE01
TAB_1                          0050530001000904801300000000010050000000TABLE01
TAB_1                          0050540001000904701300000000010050000000TABLE01
TAB_1                          0050550001000904601300000000010050000000TABLE01
TAB_1                          0050560001000904501300000000010050000000TABLE01
TAB_1                          0050570001000904401300000000010050000000TABLE01
TAB_1                          0050580001000904301300000000010050000000TABLE01
TAB_1                          0050590001000904201300000000010050000000TABLE01
TAB_1                          0050600001000904101300000000010050000000TABLE01
TAB_1                          0050610001000904001300000000010050000000TABLE01
TAB_1                          0050620001000903901300000000010050000000TABLE01
TAB_1                          0050630001000903801300000000010050000000TABLE01
TAB_1                          0050640001000903701300000000010050000000TABLE01
TAB_1                          0050650001000903601300000000010050000000TABLE01
TAB_1                          0050660001000903501300000000010050000000TABLE01
TAB_1                          0050670001000903401300000000010050000000TABLE01
TAB_1                          0050680001000903301300000000010050000000TABLE01
TAB_1                          0050690001000903201300000000010050000000TABLE01
TAB_1                          0050700001000903101300000000010050000000TABLE01
TAB_1                          0050710001000903001300000000010050000000TABLE01
TAB_1                          0050720001000902901300000000010050000000TABLE01
TAB_1                          0050730001000902801300000000010050000000TABLE01
TAB_1                          0050740001000902701300000000010050000000TABLE01
TAB_1                          0050750001000902601300000000010050000000TABLE01
TAB_1                          0050760001000902501300000000010050000000TABLE01
TAB_1                          0050770001000902401300000000010050000000TABLE01
TAB_1                          0050780001000902301300000000010050000000TABLE01
TAB_1                          0050790001000902201300000000010050000000TABLE01
TAB_1                          0050800001000902101300000000010050000000TABLE01
TAB_1                          0050810001000902001300000000010050000000TABLE01
TAB_1                          0050820001000901901300000000010050000000TABLE01
TAB_1                          0050830001000901801300000000010050000000TABLE01
TAB_1                          0050840001000901701300000000010050000000TABLE01
TAB_1                          0050850001000901601300000000010050000000TABLE01
TAB_1                          0050860001000901501300000000010050000000TABLE01
TAB_1                          0050870001000901401300000000010050000000TABLE01
TAB_1                          0050880001000901301300000000010050000000TABLE01
TAB_1                          0050890001000901201300000000010050000000TABLE01
TAB_1                          0050900001000901101300000000010050000000TABLE01
TAB_1                          0050910001000901001300000000010050000000TABLE01
TAB_1                          0050920001000900901300000000010050000000TABLE01
TAB_1                          0050930001000900801300000000010050000000TABLE01
TAB_1                          0050940001000900701300000000010050000000TABLE01
TAB_1                          0050950001000900601300000000010050000000TABLE01
TAB_1                          0050960001000900501300000000010050000000TABLE01
TAB_1                          0050970001000900401300000000010050000000TABLE01
TAB_1                          0050980001000900301300000000010050000000TABLE01
TAB_1                          0050990001000900201300000000010050000000TABLE01
TAB_1                          0051000001000900101300000000010050000000TABLE01
