1110000001070000001070090000091000000020\054\04200\134\146\000\000\000\000\000\000\000\00000100
CaseShipPickingBarcode.hst
\103\141\163\145\123\150\151\160\120\151\143\153\151\156\147\056\143\163\166
\030261\030374\030271\050772\101567\000040\030261\030374\030271\030324\030303\030255\030363\030260\030352\030271\030310
AUTO_DATE000                   0010010001000000100500000000010020000000AUTO_DATE000
AUTO_PAGE001                   0020010001000000100400000000010010000000AUTO_PAGE001
AUTO_PAGE002                   0030010001000000100400000000010000000000AUTO_PAGE002
CENTER                         0040020001000000101201000000010030000000
TAB_1                          0050020001001109901300000000010080000000TABLE01
BATCH_NO                       0060020002000000101201000000010040000000
BATCH_NAME                     0070020003000000101201000000010050000000
AREA                           0080020004000000101201000000010060000000
USER                           0090020007000000101201000000010070000000
TAB_1                          0050030001001109801300000000010080000000TABLE01
TAB_1                          0050040001001109701300000000010080000000TABLE01
TAB_1                          0050050001001109601300000000010080000000TABLE01
TAB_1                          0050060001001109501300000000010080000000TABLE01
TAB_1                          0050070001001109401300000000010080000000TABLE01
TAB_1                          0050080001001109301300000000010080000000TABLE01
TAB_1                          0050090001001109201300000000010080000000TABLE01
TAB_1                          0050100001001109101300000000010080000000TABLE01
TAB_1                          0050110001001109001300000000010080000000TABLE01
TAB_1                          0050120001001108901300000000010080000000TABLE01
TAB_1                          0050130001001108801300000000010080000000TABLE01
TAB_1                          0050140001001108701300000000010080000000TABLE01
TAB_1                          0050150001001108601300000000010080000000TABLE01
TAB_1                          0050160001001108501300000000010080000000TABLE01
TAB_1                          0050170001001108401300000000010080000000TABLE01
TAB_1                          0050180001001108301300000000010080000000TABLE01
TAB_1                          0050190001001108201300000000010080000000TABLE01
TAB_1                          0050200001001108101300000000010080000000TABLE01
TAB_1                          0050210001001108001300000000010080000000TABLE01
TAB_1                          0050220001001107901300000000010080000000TABLE01
TAB_1                          0050230001001107801300000000010080000000TABLE01
TAB_1                          0050240001001107701300000000010080000000TABLE01
TAB_1                          0050250001001107601300000000010080000000TABLE01
TAB_1                          0050260001001107501300000000010080000000TABLE01
TAB_1                          0050270001001107401300000000010080000000TABLE01
TAB_1                          0050280001001107301300000000010080000000TABLE01
TAB_1                          0050290001001107201300000000010080000000TABLE01
TAB_1                          0050300001001107101300000000010080000000TABLE01
TAB_1                          0050310001001107001300000000010080000000TABLE01
TAB_1                          0050320001001106901300000000010080000000TABLE01
TAB_1                          0050330001001106801300000000010080000000TABLE01
TAB_1                          0050340001001106701300000000010080000000TABLE01
TAB_1                          0050350001001106601300000000010080000000TABLE01
TAB_1                          0050360001001106501300000000010080000000TABLE01
TAB_1                          0050370001001106401300000000010080000000TABLE01
TAB_1                          0050380001001106301300000000010080000000TABLE01
TAB_1                          0050390001001106201300000000010080000000TABLE01
TAB_1                          0050400001001106101300000000010080000000TABLE01
TAB_1                          0050410001001106001300000000010080000000TABLE01
TAB_1                          0050420001001105901300000000010080000000TABLE01
TAB_1                          0050430001001105801300000000010080000000TABLE01
TAB_1                          0050440001001105701300000000010080000000TABLE01
TAB_1                          0050450001001105601300000000010080000000TABLE01
TAB_1                          0050460001001105501300000000010080000000TABLE01
TAB_1                          0050470001001105401300000000010080000000TABLE01
TAB_1                          0050480001001105301300000000010080000000TABLE01
TAB_1                          0050490001001105201300000000010080000000TABLE01
TAB_1                          0050500001001105101300000000010080000000TABLE01
TAB_1                          0050510001001105001300000000010080000000TABLE01
TAB_1                          0050520001001104901300000000010080000000TABLE01
TAB_1                          0050530001001104801300000000010080000000TABLE01
TAB_1                          0050540001001104701300000000010080000000TABLE01
TAB_1                          0050550001001104601300000000010080000000TABLE01
TAB_1                          0050560001001104501300000000010080000000TABLE01
TAB_1                          0050570001001104401300000000010080000000TABLE01
TAB_1                          0050580001001104301300000000010080000000TABLE01
TAB_1                          0050590001001104201300000000010080000000TABLE01
TAB_1                          0050600001001104101300000000010080000000TABLE01
TAB_1                          0050610001001104001300000000010080000000TABLE01
TAB_1                          0050620001001103901300000000010080000000TABLE01
TAB_1                          0050630001001103801300000000010080000000TABLE01
TAB_1                          0050640001001103701300000000010080000000TABLE01
TAB_1                          0050650001001103601300000000010080000000TABLE01
TAB_1                          0050660001001103501300000000010080000000TABLE01
TAB_1                          0050670001001103401300000000010080000000TABLE01
TAB_1                          0050680001001103301300000000010080000000TABLE01
TAB_1                          0050690001001103201300000000010080000000TABLE01
TAB_1                          0050700001001103101300000000010080000000TABLE01
TAB_1                          0050710001001103001300000000010080000000TABLE01
TAB_1                          0050720001001102901300000000010080000000TABLE01
TAB_1                          0050730001001102801300000000010080000000TABLE01
TAB_1                          0050740001001102701300000000010080000000TABLE01
TAB_1                          0050750001001102601300000000010080000000TABLE01
TAB_1                          0050760001001102501300000000010080000000TABLE01
TAB_1                          0050770001001102401300000000010080000000TABLE01
TAB_1                          0050780001001102301300000000010080000000TABLE01
TAB_1                          0050790001001102201300000000010080000000TABLE01
TAB_1                          0050800001001102101300000000010080000000TABLE01
TAB_1                          0050810001001102001300000000010080000000TABLE01
TAB_1                          0050820001001101901300000000010080000000TABLE01
TAB_1                          0050830001001101801300000000010080000000TABLE01
TAB_1                          0050840001001101701300000000010080000000TABLE01
TAB_1                          0050850001001101601300000000010080000000TABLE01
TAB_1                          0050860001001101501300000000010080000000TABLE01
TAB_1                          0050870001001101401300000000010080000000TABLE01
TAB_1                          0050880001001101301300000000010080000000TABLE01
TAB_1                          0050890001001101201300000000010080000000TABLE01
TAB_1                          0050900001001101101300000000010080000000TABLE01
TAB_1                          0050910001001101001300000000010080000000TABLE01
TAB_1                          0050920001001100901300000000010080000000TABLE01
TAB_1                          0050930001001100801300000000010080000000TABLE01
TAB_1                          0050940001001100701300000000010080000000TABLE01
TAB_1                          0050950001001100601300000000010080000000TABLE01
TAB_1                          0050960001001100501300000000010080000000TABLE01
TAB_1                          0050970001001100401300000000010080000000TABLE01
TAB_1                          0050980001001100301300000000010080000000TABLE01
TAB_1                          0050990001001100201300000000010080000000TABLE01
TAB_1                          0051000001001100101300000000010080000000TABLE01
