1110000001040000001040060000061000000020\054\04200\134\146\000\000\000\000\000\000\000\00000100
CaseJanPickingJan.hst
\103\141\163\145\112\141\156\120\151\143\153\151\156\147\112\141\156\056\143\163\166
\030261\030374\030271\050772\101567\000040\000112\000101\000116\061234\030115\051726\030212\030324\030303\030255\030363\030260\030352\030271\030310
AUTO_DATE000                   0010010001000000100500000000010020000000AUTO_DATE000
AUTO_PAGE001                   0020010001000000100400000000010010000000AUTO_PAGE001
AUTO_PAGE002                   0030010001000000100400000000010000000000AUTO_PAGE002
CENTER                         0040020001000000101201000000010030000000CENTER
TAB_1                          0050020001002009901300000000010050000000TABLE01
USER                           0060020007000000101201000000010040000000USER
TAB_1                          0050030001002009801300000000010050000000TABLE01
TAB_1                          0050040001002009701300000000010050000000TABLE01
TAB_1                          0050050001002009601300000000010050000000TABLE01
TAB_1                          0050060001002009501300000000010050000000TABLE01
TAB_1                          0050070001002009401300000000010050000000TABLE01
TAB_1                          0050080001002009301300000000010050000000TABLE01
TAB_1                          0050090001002009201300000000010050000000TABLE01
TAB_1                          0050100001002009101300000000010050000000TABLE01
TAB_1                          0050110001002009001300000000010050000000TABLE01
TAB_1                          0050120001002008901300000000010050000000TABLE01
TAB_1                          0050130001002008801300000000010050000000TABLE01
TAB_1                          0050140001002008701300000000010050000000TABLE01
TAB_1                          0050150001002008601300000000010050000000TABLE01
TAB_1                          0050160001002008501300000000010050000000TABLE01
TAB_1                          0050170001002008401300000000010050000000TABLE01
TAB_1                          0050180001002008301300000000010050000000TABLE01
TAB_1                          0050190001002008201300000000010050000000TABLE01
TAB_1                          0050200001002008101300000000010050000000TABLE01
TAB_1                          0050210001002008001300000000010050000000TABLE01
TAB_1                          0050220001002007901300000000010050000000TABLE01
TAB_1                          0050230001002007801300000000010050000000TABLE01
TAB_1                          0050240001002007701300000000010050000000TABLE01
TAB_1                          0050250001002007601300000000010050000000TABLE01
TAB_1                          0050260001002007501300000000010050000000TABLE01
TAB_1                          0050270001002007401300000000010050000000TABLE01
TAB_1                          0050280001002007301300000000010050000000TABLE01
TAB_1                          0050290001002007201300000000010050000000TABLE01
TAB_1                          0050300001002007101300000000010050000000TABLE01
TAB_1                          0050310001002007001300000000010050000000TABLE01
TAB_1                          0050320001002006901300000000010050000000TABLE01
TAB_1                          0050330001002006801300000000010050000000TABLE01
TAB_1                          0050340001002006701300000000010050000000TABLE01
TAB_1                          0050350001002006601300000000010050000000TABLE01
TAB_1                          0050360001002006501300000000010050000000TABLE01
TAB_1                          0050370001002006401300000000010050000000TABLE01
TAB_1                          0050380001002006301300000000010050000000TABLE01
TAB_1                          0050390001002006201300000000010050000000TABLE01
TAB_1                          0050400001002006101300000000010050000000TABLE01
TAB_1                          0050410001002006001300000000010050000000TABLE01
TAB_1                          0050420001002005901300000000010050000000TABLE01
TAB_1                          0050430001002005801300000000010050000000TABLE01
TAB_1                          0050440001002005701300000000010050000000TABLE01
TAB_1                          0050450001002005601300000000010050000000TABLE01
TAB_1                          0050460001002005501300000000010050000000TABLE01
TAB_1                          0050470001002005401300000000010050000000TABLE01
TAB_1                          0050480001002005301300000000010050000000TABLE01
TAB_1                          0050490001002005201300000000010050000000TABLE01
TAB_1                          0050500001002005101300000000010050000000TABLE01
TAB_1                          0050510001002005001300000000010050000000TABLE01
TAB_1                          0050520001002004901300000000010050000000TABLE01
TAB_1                          0050530001002004801300000000010050000000TABLE01
TAB_1                          0050540001002004701300000000010050000000TABLE01
TAB_1                          0050550001002004601300000000010050000000TABLE01
TAB_1                          0050560001002004501300000000010050000000TABLE01
TAB_1                          0050570001002004401300000000010050000000TABLE01
TAB_1                          0050580001002004301300000000010050000000TABLE01
TAB_1                          0050590001002004201300000000010050000000TABLE01
TAB_1                          0050600001002004101300000000010050000000TABLE01
TAB_1                          0050610001002004001300000000010050000000TABLE01
TAB_1                          0050620001002003901300000000010050000000TABLE01
TAB_1                          0050630001002003801300000000010050000000TABLE01
TAB_1                          0050640001002003701300000000010050000000TABLE01
TAB_1                          0050650001002003601300000000010050000000TABLE01
TAB_1                          0050660001002003501300000000010050000000TABLE01
TAB_1                          0050670001002003401300000000010050000000TABLE01
TAB_1                          0050680001002003301300000000010050000000TABLE01
TAB_1                          0050690001002003201300000000010050000000TABLE01
TAB_1                          0050700001002003101300000000010050000000TABLE01
TAB_1                          0050710001002003001300000000010050000000TABLE01
TAB_1                          0050720001002002901300000000010050000000TABLE01
TAB_1                          0050730001002002801300000000010050000000TABLE01
TAB_1                          0050740001002002701300000000010050000000TABLE01
TAB_1                          0050750001002002601300000000010050000000TABLE01
TAB_1                          0050760001002002501300000000010050000000TABLE01
TAB_1                          0050770001002002401300000000010050000000TABLE01
TAB_1                          0050780001002002301300000000010050000000TABLE01
TAB_1                          0050790001002002201300000000010050000000TABLE01
TAB_1                          0050800001002002101300000000010050000000TABLE01
TAB_1                          0050810001002002001300000000010050000000TABLE01
TAB_1                          0050820001002001901300000000010050000000TABLE01
TAB_1                          0050830001002001801300000000010050000000TABLE01
TAB_1                          0050840001002001701300000000010050000000TABLE01
TAB_1                          0050850001002001601300000000010050000000TABLE01
TAB_1                          0050860001002001501300000000010050000000TABLE01
TAB_1                          0050870001002001401300000000010050000000TABLE01
TAB_1                          0050880001002001301300000000010050000000TABLE01
TAB_1                          0050890001002001201300000000010050000000TABLE01
TAB_1                          0050900001002001101300000000010050000000TABLE01
TAB_1                          0050910001002001001300000000010050000000TABLE01
TAB_1                          0050920001002000901300000000010050000000TABLE01
TAB_1                          0050930001002000801300000000010050000000TABLE01
TAB_1                          0050940001002000701300000000010050000000TABLE01
TAB_1                          0050950001002000601300000000010050000000TABLE01
TAB_1                          0050960001002000501300000000010050000000TABLE01
TAB_1                          0050970001002000401300000000010050000000TABLE01
TAB_1                          0050980001002000301300000000010050000000TABLE01
TAB_1                          0050990001002000201300000000010050000000TABLE01
TAB_1                          0051000001002000101300000000010050000000TABLE01
