1110000001060000001060080000081000000030\054\04200\134\146\000\000\000\000\000\000\000\00000100
EcAllocationOrder.hst
\210\370\223\226\203\107\203\211\201\133\050\222\215\225\266\225\312\051\055\060\060\065\055\062\060\062\060\060\067\061\064\055\061\066\060\063\062\067\056\143\163\166
\000105\000103\057425\057523\030250\030351\030374\030352\030271\030310\177410\066350\062607\051045\177411
AUTO_PAGE001                   0010010001000000100400000000010020000000AUTO_PAGE001
AUTO_PAGE002                   0020010001000000100400000000010010000000AUTO_PAGE002
AUTO_DATE000                   0030010001000000100500000000010000000000AUTO_DATE000
CENTER_ID                      0040020001000000101201000000010030000000
CENTER_NAME                    0050020002000000101201000000010040000000
USER_ID                        0060020003000000101201000000010050000000
USER_NAME                      0070020004000000101201000000010060000000
TABLE000                       0080020005001709901300000000010070000000TABLE000
TABLE000                       0080030005001709801300000000010070000000TABLE000
TABLE000                       0080040005001709701300000000010070000000TABLE000
TABLE000                       0080050005001709601300000000010070000000TABLE000
TABLE000                       0080060005001709501300000000010070000000TABLE000
TABLE000                       0080070005001709401300000000010070000000TABLE000
TABLE000                       0080080005001709301300000000010070000000TABLE000
TABLE000                       0080090005001709201300000000010070000000TABLE000
TABLE000                       0080100005001709101300000000010070000000TABLE000
TABLE000                       0080110005001709001300000000010070000000TABLE000
TABLE000                       0080120005001708901300000000010070000000TABLE000
TABLE000                       0080130005001708801300000000010070000000TABLE000
TABLE000                       0080140005001708701300000000010070000000TABLE000
TABLE000                       0080150005001708601300000000010070000000TABLE000
TABLE000                       0080160005001708501300000000010070000000TABLE000
TABLE000                       0080170005001708401300000000010070000000TABLE000
TABLE000                       0080180005001708301300000000010070000000TABLE000
TABLE000                       0080190005001708201300000000010070000000TABLE000
TABLE000                       0080200005001708101300000000010070000000TABLE000
TABLE000                       0080210005001708001300000000010070000000TABLE000
TABLE000                       0080220005001707901300000000010070000000TABLE000
TABLE000                       0080230005001707801300000000010070000000TABLE000
TABLE000                       0080240005001707701300000000010070000000TABLE000
TABLE000                       0080250005001707601300000000010070000000TABLE000
TABLE000                       0080260005001707501300000000010070000000TABLE000
TABLE000                       0080270005001707401300000000010070000000TABLE000
TABLE000                       0080280005001707301300000000010070000000TABLE000
TABLE000                       0080290005001707201300000000010070000000TABLE000
TABLE000                       0080300005001707101300000000010070000000TABLE000
TABLE000                       0080310005001707001300000000010070000000TABLE000
TABLE000                       0080320005001706901300000000010070000000TABLE000
TABLE000                       0080330005001706801300000000010070000000TABLE000
TABLE000                       0080340005001706701300000000010070000000TABLE000
TABLE000                       0080350005001706601300000000010070000000TABLE000
TABLE000                       0080360005001706501300000000010070000000TABLE000
TABLE000                       0080370005001706401300000000010070000000TABLE000
TABLE000                       0080380005001706301300000000010070000000TABLE000
TABLE000                       0080390005001706201300000000010070000000TABLE000
TABLE000                       0080400005001706101300000000010070000000TABLE000
TABLE000                       0080410005001706001300000000010070000000TABLE000
TABLE000                       0080420005001705901300000000010070000000TABLE000
TABLE000                       0080430005001705801300000000010070000000TABLE000
TABLE000                       0080440005001705701300000000010070000000TABLE000
TABLE000                       0080450005001705601300000000010070000000TABLE000
TABLE000                       0080460005001705501300000000010070000000TABLE000
TABLE000                       0080470005001705401300000000010070000000TABLE000
TABLE000                       0080480005001705301300000000010070000000TABLE000
TABLE000                       0080490005001705201300000000010070000000TABLE000
TABLE000                       0080500005001705101300000000010070000000TABLE000
TABLE000                       0080510005001705001300000000010070000000TABLE000
TABLE000                       0080520005001704901300000000010070000000TABLE000
TABLE000                       0080530005001704801300000000010070000000TABLE000
TABLE000                       0080540005001704701300000000010070000000TABLE000
TABLE000                       0080550005001704601300000000010070000000TABLE000
TABLE000                       0080560005001704501300000000010070000000TABLE000
TABLE000                       0080570005001704401300000000010070000000TABLE000
TABLE000                       0080580005001704301300000000010070000000TABLE000
TABLE000                       0080590005001704201300000000010070000000TABLE000
TABLE000                       0080600005001704101300000000010070000000TABLE000
TABLE000                       0080610005001704001300000000010070000000TABLE000
TABLE000                       0080620005001703901300000000010070000000TABLE000
TABLE000                       0080630005001703801300000000010070000000TABLE000
TABLE000                       0080640005001703701300000000010070000000TABLE000
TABLE000                       0080650005001703601300000000010070000000TABLE000
TABLE000                       0080660005001703501300000000010070000000TABLE000
TABLE000                       0080670005001703401300000000010070000000TABLE000
TABLE000                       0080680005001703301300000000010070000000TABLE000
TABLE000                       0080690005001703201300000000010070000000TABLE000
TABLE000                       0080700005001703101300000000010070000000TABLE000
TABLE000                       0080710005001703001300000000010070000000TABLE000
TABLE000                       0080720005001702901300000000010070000000TABLE000
TABLE000                       0080730005001702801300000000010070000000TABLE000
TABLE000                       0080740005001702701300000000010070000000TABLE000
TABLE000                       0080750005001702601300000000010070000000TABLE000
TABLE000                       0080760005001702501300000000010070000000TABLE000
TABLE000                       0080770005001702401300000000010070000000TABLE000
TABLE000                       0080780005001702301300000000010070000000TABLE000
TABLE000                       0080790005001702201300000000010070000000TABLE000
TABLE000                       0080800005001702101300000000010070000000TABLE000
TABLE000                       0080810005001702001300000000010070000000TABLE000
TABLE000                       0080820005001701901300000000010070000000TABLE000
TABLE000                       0080830005001701801300000000010070000000TABLE000
TABLE000                       0080840005001701701300000000010070000000TABLE000
TABLE000                       0080850005001701601300000000010070000000TABLE000
TABLE000                       0080860005001701501300000000010070000000TABLE000
TABLE000                       0080870005001701401300000000010070000000TABLE000
TABLE000                       0080880005001701301300000000010070000000TABLE000
TABLE000                       0080890005001701201300000000010070000000TABLE000
TABLE000                       0080900005001701101300000000010070000000TABLE000
TABLE000                       0080910005001701001300000000010070000000TABLE000
TABLE000                       0080920005001700901300000000010070000000TABLE000
TABLE000                       0080930005001700801300000000010070000000TABLE000
TABLE000                       0080940005001700701300000000010070000000TABLE000
TABLE000                       0080950005001700601300000000010070000000TABLE000
TABLE000                       0080960005001700501300000000010070000000TABLE000
TABLE000                       0080970005001700401300000000010070000000TABLE000
TABLE000                       0080980005001700301300000000010070000000TABLE000
TABLE000                       0080990005001700201300000000010070000000TABLE000
TABLE000                       0081000005001700101300000000010070000000TABLE000
