1110000001060000001060080000081000000020\054\04200\134\146\000\000\000\000\000\000\000\00000100
EcAllocationItem.hst
\210\370\223\226\203\107\203\211\201\133\050\217\244\225\151\225\312\051\055\060\060\065\055\062\060\062\060\060\067\061\064\055\061\065\063\063\063\062\056\143\163\166
\000105\000103\057425\057523\030250\030351\030374\030352\030271\030310\177410\052506\052301\051045\177411
AUTO_PAGE001                   0010010001000000100400000000010020000000AUTO_PAGE001
AUTO_PAGE002                   0020010001000000100400000000010010000000AUTO_PAGE002
AUTO_DATE000                   0030010001000000100500000000010000000000AUTO_DATE000
CENTER_ID                      0040020001000000101201000000010030000000
CENTER_NAME                    0050020002000000101201000000010040000000
USER_ID                        0060020003000000101201000000010050000000
USER_NAME                      0070020004000000101201000000010060000000
TABLE001                       0080020005001409901300000000010070000000TABLE001
TABLE001                       0080030005001409801300000000010070000000TABLE001
TABLE001                       0080040005001409701300000000010070000000TABLE001
TABLE001                       0080050005001409601300000000010070000000TABLE001
TABLE001                       0080060005001409501300000000010070000000TABLE001
TABLE001                       0080070005001409401300000000010070000000TABLE001
TABLE001                       0080080005001409301300000000010070000000TABLE001
TABLE001                       0080090005001409201300000000010070000000TABLE001
TABLE001                       0080100005001409101300000000010070000000TABLE001
TABLE001                       0080110005001409001300000000010070000000TABLE001
TABLE001                       0080120005001408901300000000010070000000TABLE001
TABLE001                       0080130005001408801300000000010070000000TABLE001
TABLE001                       0080140005001408701300000000010070000000TABLE001
TABLE001                       0080150005001408601300000000010070000000TABLE001
TABLE001                       0080160005001408501300000000010070000000TABLE001
TABLE001                       0080170005001408401300000000010070000000TABLE001
TABLE001                       0080180005001408301300000000010070000000TABLE001
TABLE001                       0080190005001408201300000000010070000000TABLE001
TABLE001                       0080200005001408101300000000010070000000TABLE001
TABLE001                       0080210005001408001300000000010070000000TABLE001
TABLE001                       0080220005001407901300000000010070000000TABLE001
TABLE001                       0080230005001407801300000000010070000000TABLE001
TABLE001                       0080240005001407701300000000010070000000TABLE001
TABLE001                       0080250005001407601300000000010070000000TABLE001
TABLE001                       0080260005001407501300000000010070000000TABLE001
TABLE001                       0080270005001407401300000000010070000000TABLE001
TABLE001                       0080280005001407301300000000010070000000TABLE001
TABLE001                       0080290005001407201300000000010070000000TABLE001
TABLE001                       0080300005001407101300000000010070000000TABLE001
TABLE001                       0080310005001407001300000000010070000000TABLE001
TABLE001                       0080320005001406901300000000010070000000TABLE001
TABLE001                       0080330005001406801300000000010070000000TABLE001
TABLE001                       0080340005001406701300000000010070000000TABLE001
TABLE001                       0080350005001406601300000000010070000000TABLE001
TABLE001                       0080360005001406501300000000010070000000TABLE001
TABLE001                       0080370005001406401300000000010070000000TABLE001
TABLE001                       0080380005001406301300000000010070000000TABLE001
TABLE001                       0080390005001406201300000000010070000000TABLE001
TABLE001                       0080400005001406101300000000010070000000TABLE001
TABLE001                       0080410005001406001300000000010070000000TABLE001
TABLE001                       0080420005001405901300000000010070000000TABLE001
TABLE001                       0080430005001405801300000000010070000000TABLE001
TABLE001                       0080440005001405701300000000010070000000TABLE001
TABLE001                       0080450005001405601300000000010070000000TABLE001
TABLE001                       0080460005001405501300000000010070000000TABLE001
TABLE001                       0080470005001405401300000000010070000000TABLE001
TABLE001                       0080480005001405301300000000010070000000TABLE001
TABLE001                       0080490005001405201300000000010070000000TABLE001
TABLE001                       0080500005001405101300000000010070000000TABLE001
TABLE001                       0080510005001405001300000000010070000000TABLE001
TABLE001                       0080520005001404901300000000010070000000TABLE001
TABLE001                       0080530005001404801300000000010070000000TABLE001
TABLE001                       0080540005001404701300000000010070000000TABLE001
TABLE001                       0080550005001404601300000000010070000000TABLE001
TABLE001                       0080560005001404501300000000010070000000TABLE001
TABLE001                       0080570005001404401300000000010070000000TABLE001
TABLE001                       0080580005001404301300000000010070000000TABLE001
TABLE001                       0080590005001404201300000000010070000000TABLE001
TABLE001                       0080600005001404101300000000010070000000TABLE001
TABLE001                       0080610005001404001300000000010070000000TABLE001
TABLE001                       0080620005001403901300000000010070000000TABLE001
TABLE001                       0080630005001403801300000000010070000000TABLE001
TABLE001                       0080640005001403701300000000010070000000TABLE001
TABLE001                       0080650005001403601300000000010070000000TABLE001
TABLE001                       0080660005001403501300000000010070000000TABLE001
TABLE001                       0080670005001403401300000000010070000000TABLE001
TABLE001                       0080680005001403301300000000010070000000TABLE001
TABLE001                       0080690005001403201300000000010070000000TABLE001
TABLE001                       0080700005001403101300000000010070000000TABLE001
TABLE001                       0080710005001403001300000000010070000000TABLE001
TABLE001                       0080720005001402901300000000010070000000TABLE001
TABLE001                       0080730005001402801300000000010070000000TABLE001
TABLE001                       0080740005001402701300000000010070000000TABLE001
TABLE001                       0080750005001402601300000000010070000000TABLE001
TABLE001                       0080760005001402501300000000010070000000TABLE001
TABLE001                       0080770005001402401300000000010070000000TABLE001
TABLE001                       0080780005001402301300000000010070000000TABLE001
TABLE001                       0080790005001402201300000000010070000000TABLE001
TABLE001                       0080800005001402101300000000010070000000TABLE001
TABLE001                       0080810005001402001300000000010070000000TABLE001
TABLE001                       0080820005001401901300000000010070000000TABLE001
TABLE001                       0080830005001401801300000000010070000000TABLE001
TABLE001                       0080840005001401701300000000010070000000TABLE001
TABLE001                       0080850005001401601300000000010070000000TABLE001
TABLE001                       0080860005001401501300000000010070000000TABLE001
TABLE001                       0080870005001401401300000000010070000000TABLE001
TABLE001                       0080880005001401301300000000010070000000TABLE001
TABLE001                       0080890005001401201300000000010070000000TABLE001
TABLE001                       0080900005001401101300000000010070000000TABLE001
TABLE001                       0080910005001401001300000000010070000000TABLE001
TABLE001                       0080920005001400901300000000010070000000TABLE001
TABLE001                       0080930005001400801300000000010070000000TABLE001
TABLE001                       0080940005001400701300000000010070000000TABLE001
TABLE001                       0080950005001400601300000000010070000000TABLE001
TABLE001                       0080960005001400501300000000010070000000TABLE001
TABLE001                       0080970005001400401300000000010070000000TABLE001
TABLE001                       0080980005001400301300000000010070000000TABLE001
TABLE001                       0080990005001400201300000000010070000000TABLE001
TABLE001                       0081000005001400101300000000010070000000TABLE001
