1110000001050000001050070000071000000030\054\04200\134\146\000\000\000\000\000\000\000\00000100
EcBatchPicking.hst
\105\143\102\141\164\143\150\120\151\143\153\151\156\147\112\141\156\056\143\163\166
\000105\000103\030320\030303\030301\051530\047515\030324\030303\030255\030363\030260\030352\030271\030310
AUTO_DATE000                   0010010001000000100500000000010020000000AUTO_DATE000
AUTO_PAGE001                   0020010001000000100400000000010010000000AUTO_PAGE001
AUTO_PAGE002                   0030010001000000100400000000010000000000AUTO_PAGE002
CENTER                         0040020001000000101201000000010030000000CENTER
TAB_1                          0050020001002309901300000000010060000000TABLE01
PICKING_GROUP_NO_1             0060020006000000101201000000010040000000PICKING_GROUP_NO_1
USER                           0070020008000000101201000000010050000000USER
TAB_1                          0050030001002309801300000000010060000000TABLE01
TAB_1                          0050040001002309701300000000010060000000TABLE01
TAB_1                          0050050001002309601300000000010060000000TABLE01
TAB_1                          0050060001002309501300000000010060000000TABLE01
TAB_1                          0050070001002309401300000000010060000000TABLE01
TAB_1                          0050080001002309301300000000010060000000TABLE01
TAB_1                          0050090001002309201300000000010060000000TABLE01
TAB_1                          0050100001002309101300000000010060000000TABLE01
TAB_1                          0050110001002309001300000000010060000000TABLE01
TAB_1                          0050120001002308901300000000010060000000TABLE01
TAB_1                          0050130001002308801300000000010060000000TABLE01
TAB_1                          0050140001002308701300000000010060000000TABLE01
TAB_1                          0050150001002308601300000000010060000000TABLE01
TAB_1                          0050160001002308501300000000010060000000TABLE01
TAB_1                          0050170001002308401300000000010060000000TABLE01
TAB_1                          0050180001002308301300000000010060000000TABLE01
TAB_1                          0050190001002308201300000000010060000000TABLE01
TAB_1                          0050200001002308101300000000010060000000TABLE01
TAB_1                          0050210001002308001300000000010060000000TABLE01
TAB_1                          0050220001002307901300000000010060000000TABLE01
TAB_1                          0050230001002307801300000000010060000000TABLE01
TAB_1                          0050240001002307701300000000010060000000TABLE01
TAB_1                          0050250001002307601300000000010060000000TABLE01
TAB_1                          0050260001002307501300000000010060000000TABLE01
TAB_1                          0050270001002307401300000000010060000000TABLE01
TAB_1                          0050280001002307301300000000010060000000TABLE01
TAB_1                          0050290001002307201300000000010060000000TABLE01
TAB_1                          0050300001002307101300000000010060000000TABLE01
TAB_1                          0050310001002307001300000000010060000000TABLE01
TAB_1                          0050320001002306901300000000010060000000TABLE01
TAB_1                          0050330001002306801300000000010060000000TABLE01
TAB_1                          0050340001002306701300000000010060000000TABLE01
TAB_1                          0050350001002306601300000000010060000000TABLE01
TAB_1                          0050360001002306501300000000010060000000TABLE01
TAB_1                          0050370001002306401300000000010060000000TABLE01
TAB_1                          0050380001002306301300000000010060000000TABLE01
TAB_1                          0050390001002306201300000000010060000000TABLE01
TAB_1                          0050400001002306101300000000010060000000TABLE01
TAB_1                          0050410001002306001300000000010060000000TABLE01
TAB_1                          0050420001002305901300000000010060000000TABLE01
TAB_1                          0050430001002305801300000000010060000000TABLE01
TAB_1                          0050440001002305701300000000010060000000TABLE01
TAB_1                          0050450001002305601300000000010060000000TABLE01
TAB_1                          0050460001002305501300000000010060000000TABLE01
TAB_1                          0050470001002305401300000000010060000000TABLE01
TAB_1                          0050480001002305301300000000010060000000TABLE01
TAB_1                          0050490001002305201300000000010060000000TABLE01
TAB_1                          0050500001002305101300000000010060000000TABLE01
TAB_1                          0050510001002305001300000000010060000000TABLE01
TAB_1                          0050520001002304901300000000010060000000TABLE01
TAB_1                          0050530001002304801300000000010060000000TABLE01
TAB_1                          0050540001002304701300000000010060000000TABLE01
TAB_1                          0050550001002304601300000000010060000000TABLE01
TAB_1                          0050560001002304501300000000010060000000TABLE01
TAB_1                          0050570001002304401300000000010060000000TABLE01
TAB_1                          0050580001002304301300000000010060000000TABLE01
TAB_1                          0050590001002304201300000000010060000000TABLE01
TAB_1                          0050600001002304101300000000010060000000TABLE01
TAB_1                          0050610001002304001300000000010060000000TABLE01
TAB_1                          0050620001002303901300000000010060000000TABLE01
TAB_1                          0050630001002303801300000000010060000000TABLE01
TAB_1                          0050640001002303701300000000010060000000TABLE01
TAB_1                          0050650001002303601300000000010060000000TABLE01
TAB_1                          0050660001002303501300000000010060000000TABLE01
TAB_1                          0050670001002303401300000000010060000000TABLE01
TAB_1                          0050680001002303301300000000010060000000TABLE01
TAB_1                          0050690001002303201300000000010060000000TABLE01
TAB_1                          0050700001002303101300000000010060000000TABLE01
TAB_1                          0050710001002303001300000000010060000000TABLE01
TAB_1                          0050720001002302901300000000010060000000TABLE01
TAB_1                          0050730001002302801300000000010060000000TABLE01
TAB_1                          0050740001002302701300000000010060000000TABLE01
TAB_1                          0050750001002302601300000000010060000000TABLE01
TAB_1                          0050760001002302501300000000010060000000TABLE01
TAB_1                          0050770001002302401300000000010060000000TABLE01
TAB_1                          0050780001002302301300000000010060000000TABLE01
TAB_1                          0050790001002302201300000000010060000000TABLE01
TAB_1                          0050800001002302101300000000010060000000TABLE01
TAB_1                          0050810001002302001300000000010060000000TABLE01
TAB_1                          0050820001002301901300000000010060000000TABLE01
TAB_1                          0050830001002301801300000000010060000000TABLE01
TAB_1                          0050840001002301701300000000010060000000TABLE01
TAB_1                          0050850001002301601300000000010060000000TABLE01
TAB_1                          0050860001002301501300000000010060000000TABLE01
TAB_1                          0050870001002301401300000000010060000000TABLE01
TAB_1                          0050880001002301301300000000010060000000TABLE01
TAB_1                          0050890001002301201300000000010060000000TABLE01
TAB_1                          0050900001002301101300000000010060000000TABLE01
TAB_1                          0050910001002301001300000000010060000000TABLE01
TAB_1                          0050920001002300901300000000010060000000TABLE01
TAB_1                          0050930001002300801300000000010060000000TABLE01
TAB_1                          0050940001002300701300000000010060000000TABLE01
TAB_1                          0050950001002300601300000000010060000000TABLE01
TAB_1                          0050960001002300501300000000010060000000TABLE01
TAB_1                          0050970001002300401300000000010060000000TABLE01
TAB_1                          0050980001002300301300000000010060000000TABLE01
TAB_1                          0050990001002300201300000000010060000000TABLE01
TAB_1                          0051000001002300101300000000010060000000TABLE01
