1110000001040000001040060000061000000020\054\04200\134\146\000\000\000\000\000\000\000\00000100
EcConfirmDetail.hst
\105\143\103\157\156\146\151\162\155\104\145\164\141\151\154\056\143\163\166
\030261\030374\030271\050772\101567\000040\000112\000101\000116\061234\030115\051726\030212\030324\030303\030255\030363\030260\030352\030271\030310
AUTO_PAGE002                   0010010001000000100400000000010020000000AUTO_PAGE002
AUTO_PAGE001                   0020010001000000100400000000010010000000AUTO_PAGE001
AUTO_DATE000                   0030010001000000100500000000010000000000AUTO_DATE000
CENTER                         0040020001000000101201000000010030000000CENTER
TAB_1                          0050020001001509901300000000010050000000TABLE01
USER                           0060020002000000101201000000010040000000USER
TAB_1                          0050030001001509801300000000010050000000TABLE01
TAB_1                          0050040001001509701300000000010050000000TABLE01
TAB_1                          0050050001001509601300000000010050000000TABLE01
TAB_1                          0050060001001509501300000000010050000000TABLE01
TAB_1                          0050070001001509401300000000010050000000TABLE01
TAB_1                          0050080001001509301300000000010050000000TABLE01
TAB_1                          0050090001001509201300000000010050000000TABLE01
TAB_1                          0050100001001509101300000000010050000000TABLE01
TAB_1                          0050110001001509001300000000010050000000TABLE01
TAB_1                          0050120001001508901300000000010050000000TABLE01
TAB_1                          0050130001001508801300000000010050000000TABLE01
TAB_1                          0050140001001508701300000000010050000000TABLE01
TAB_1                          0050150001001508601300000000010050000000TABLE01
TAB_1                          0050160001001508501300000000010050000000TABLE01
TAB_1                          0050170001001508401300000000010050000000TABLE01
TAB_1                          0050180001001508301300000000010050000000TABLE01
TAB_1                          0050190001001508201300000000010050000000TABLE01
TAB_1                          0050200001001508101300000000010050000000TABLE01
TAB_1                          0050210001001508001300000000010050000000TABLE01
TAB_1                          0050220001001507901300000000010050000000TABLE01
TAB_1                          0050230001001507801300000000010050000000TABLE01
TAB_1                          0050240001001507701300000000010050000000TABLE01
TAB_1                          0050250001001507601300000000010050000000TABLE01
TAB_1                          0050260001001507501300000000010050000000TABLE01
TAB_1                          0050270001001507401300000000010050000000TABLE01
TAB_1                          0050280001001507301300000000010050000000TABLE01
TAB_1                          0050290001001507201300000000010050000000TABLE01
TAB_1                          0050300001001507101300000000010050000000TABLE01
TAB_1                          0050310001001507001300000000010050000000TABLE01
TAB_1                          0050320001001506901300000000010050000000TABLE01
TAB_1                          0050330001001506801300000000010050000000TABLE01
TAB_1                          0050340001001506701300000000010050000000TABLE01
TAB_1                          0050350001001506601300000000010050000000TABLE01
TAB_1                          0050360001001506501300000000010050000000TABLE01
TAB_1                          0050370001001506401300000000010050000000TABLE01
TAB_1                          0050380001001506301300000000010050000000TABLE01
TAB_1                          0050390001001506201300000000010050000000TABLE01
TAB_1                          0050400001001506101300000000010050000000TABLE01
TAB_1                          0050410001001506001300000000010050000000TABLE01
TAB_1                          0050420001001505901300000000010050000000TABLE01
TAB_1                          0050430001001505801300000000010050000000TABLE01
TAB_1                          0050440001001505701300000000010050000000TABLE01
TAB_1                          0050450001001505601300000000010050000000TABLE01
TAB_1                          0050460001001505501300000000010050000000TABLE01
TAB_1                          0050470001001505401300000000010050000000TABLE01
TAB_1                          0050480001001505301300000000010050000000TABLE01
TAB_1                          0050490001001505201300000000010050000000TABLE01
TAB_1                          0050500001001505101300000000010050000000TABLE01
TAB_1                          0050510001001505001300000000010050000000TABLE01
TAB_1                          0050520001001504901300000000010050000000TABLE01
TAB_1                          0050530001001504801300000000010050000000TABLE01
TAB_1                          0050540001001504701300000000010050000000TABLE01
TAB_1                          0050550001001504601300000000010050000000TABLE01
TAB_1                          0050560001001504501300000000010050000000TABLE01
TAB_1                          0050570001001504401300000000010050000000TABLE01
TAB_1                          0050580001001504301300000000010050000000TABLE01
TAB_1                          0050590001001504201300000000010050000000TABLE01
TAB_1                          0050600001001504101300000000010050000000TABLE01
TAB_1                          0050610001001504001300000000010050000000TABLE01
TAB_1                          0050620001001503901300000000010050000000TABLE01
TAB_1                          0050630001001503801300000000010050000000TABLE01
TAB_1                          0050640001001503701300000000010050000000TABLE01
TAB_1                          0050650001001503601300000000010050000000TABLE01
TAB_1                          0050660001001503501300000000010050000000TABLE01
TAB_1                          0050670001001503401300000000010050000000TABLE01
TAB_1                          0050680001001503301300000000010050000000TABLE01
TAB_1                          0050690001001503201300000000010050000000TABLE01
TAB_1                          0050700001001503101300000000010050000000TABLE01
TAB_1                          0050710001001503001300000000010050000000TABLE01
TAB_1                          0050720001001502901300000000010050000000TABLE01
TAB_1                          0050730001001502801300000000010050000000TABLE01
TAB_1                          0050740001001502701300000000010050000000TABLE01
TAB_1                          0050750001001502601300000000010050000000TABLE01
TAB_1                          0050760001001502501300000000010050000000TABLE01
TAB_1                          0050770001001502401300000000010050000000TABLE01
TAB_1                          0050780001001502301300000000010050000000TABLE01
TAB_1                          0050790001001502201300000000010050000000TABLE01
TAB_1                          0050800001001502101300000000010050000000TABLE01
TAB_1                          0050810001001502001300000000010050000000TABLE01
TAB_1                          0050820001001501901300000000010050000000TABLE01
TAB_1                          0050830001001501801300000000010050000000TABLE01
TAB_1                          0050840001001501701300000000010050000000TABLE01
TAB_1                          0050850001001501601300000000010050000000TABLE01
TAB_1                          0050860001001501501300000000010050000000TABLE01
TAB_1                          0050870001001501401300000000010050000000TABLE01
TAB_1                          0050880001001501301300000000010050000000TABLE01
TAB_1                          0050890001001501201300000000010050000000TABLE01
TAB_1                          0050900001001501101300000000010050000000TABLE01
TAB_1                          0050910001001501001300000000010050000000TABLE01
TAB_1                          0050920001001500901300000000010050000000TABLE01
TAB_1                          0050930001001500801300000000010050000000TABLE01
TAB_1                          0050940001001500701300000000010050000000TABLE01
TAB_1                          0050950001001500601300000000010050000000TABLE01
TAB_1                          0050960001001500501300000000010050000000TABLE01
TAB_1                          0050970001001500401300000000010050000000TABLE01
TAB_1                          0050980001001500301300000000010050000000TABLE01
TAB_1                          0050990001001500201300000000010050000000TABLE01
TAB_1                          0051000001001500101300000000010050000000TABLE01
