1110000001030000001030050000051000000030\054\04200\134\146\000\000\000\000\000\000\000\00000100
InvDifferenceList.hst
\222\111\211\265\220\151\222\273\217\306\211\357\055\062\060\062\060\060\071\061\060\055\061\066\062\067\060\066\055\060\060\060\061\055\060\060\065\056\143\163\166
\064332\051570\056756\072560\030352\030271\030310
AUTO_PAGE001                   0010010001000000100400000000010020000000AUTO_PAGE001
AUTO_PAGE002                   0020010001000000100400000000010010000000AUTO_PAGE002
AUTO_DATE000                   0030010001000000100500000000010000000000AUTO_DATE000
TAB_1                          0040020001002409901300000000010040000000TABLE001
USER                           0050020007000000101201000000010030000000
TAB_1                          0040030001002409801300000000010040000000TABLE001
TAB_1                          0040040001002409701300000000010040000000TABLE001
TAB_1                          0040050001002409601300000000010040000000TABLE001
TAB_1                          0040060001002409501300000000010040000000TABLE001
TAB_1                          0040070001002409401300000000010040000000TABLE001
TAB_1                          0040080001002409301300000000010040000000TABLE001
TAB_1                          0040090001002409201300000000010040000000TABLE001
TAB_1                          0040100001002409101300000000010040000000TABLE001
TAB_1                          0040110001002409001300000000010040000000TABLE001
TAB_1                          0040120001002408901300000000010040000000TABLE001
TAB_1                          0040130001002408801300000000010040000000TABLE001
TAB_1                          0040140001002408701300000000010040000000TABLE001
TAB_1                          0040150001002408601300000000010040000000TABLE001
TAB_1                          0040160001002408501300000000010040000000TABLE001
TAB_1                          0040170001002408401300000000010040000000TABLE001
TAB_1                          0040180001002408301300000000010040000000TABLE001
TAB_1                          0040190001002408201300000000010040000000TABLE001
TAB_1                          0040200001002408101300000000010040000000TABLE001
TAB_1                          0040210001002408001300000000010040000000TABLE001
TAB_1                          0040220001002407901300000000010040000000TABLE001
TAB_1                          0040230001002407801300000000010040000000TABLE001
TAB_1                          0040240001002407701300000000010040000000TABLE001
TAB_1                          0040250001002407601300000000010040000000TABLE001
TAB_1                          0040260001002407501300000000010040000000TABLE001
TAB_1                          0040270001002407401300000000010040000000TABLE001
TAB_1                          0040280001002407301300000000010040000000TABLE001
TAB_1                          0040290001002407201300000000010040000000TABLE001
TAB_1                          0040300001002407101300000000010040000000TABLE001
TAB_1                          0040310001002407001300000000010040000000TABLE001
TAB_1                          0040320001002406901300000000010040000000TABLE001
TAB_1                          0040330001002406801300000000010040000000TABLE001
TAB_1                          0040340001002406701300000000010040000000TABLE001
TAB_1                          0040350001002406601300000000010040000000TABLE001
TAB_1                          0040360001002406501300000000010040000000TABLE001
TAB_1                          0040370001002406401300000000010040000000TABLE001
TAB_1                          0040380001002406301300000000010040000000TABLE001
TAB_1                          0040390001002406201300000000010040000000TABLE001
TAB_1                          0040400001002406101300000000010040000000TABLE001
TAB_1                          0040410001002406001300000000010040000000TABLE001
TAB_1                          0040420001002405901300000000010040000000TABLE001
TAB_1                          0040430001002405801300000000010040000000TABLE001
TAB_1                          0040440001002405701300000000010040000000TABLE001
TAB_1                          0040450001002405601300000000010040000000TABLE001
TAB_1                          0040460001002405501300000000010040000000TABLE001
TAB_1                          0040470001002405401300000000010040000000TABLE001
TAB_1                          0040480001002405301300000000010040000000TABLE001
TAB_1                          0040490001002405201300000000010040000000TABLE001
TAB_1                          0040500001002405101300000000010040000000TABLE001
TAB_1                          0040510001002405001300000000010040000000TABLE001
TAB_1                          0040520001002404901300000000010040000000TABLE001
TAB_1                          0040530001002404801300000000010040000000TABLE001
TAB_1                          0040540001002404701300000000010040000000TABLE001
TAB_1                          0040550001002404601300000000010040000000TABLE001
TAB_1                          0040560001002404501300000000010040000000TABLE001
TAB_1                          0040570001002404401300000000010040000000TABLE001
TAB_1                          0040580001002404301300000000010040000000TABLE001
TAB_1                          0040590001002404201300000000010040000000TABLE001
TAB_1                          0040600001002404101300000000010040000000TABLE001
TAB_1                          0040610001002404001300000000010040000000TABLE001
TAB_1                          0040620001002403901300000000010040000000TABLE001
TAB_1                          0040630001002403801300000000010040000000TABLE001
TAB_1                          0040640001002403701300000000010040000000TABLE001
TAB_1                          0040650001002403601300000000010040000000TABLE001
TAB_1                          0040660001002403501300000000010040000000TABLE001
TAB_1                          0040670001002403401300000000010040000000TABLE001
TAB_1                          0040680001002403301300000000010040000000TABLE001
TAB_1                          0040690001002403201300000000010040000000TABLE001
TAB_1                          0040700001002403101300000000010040000000TABLE001
TAB_1                          0040710001002403001300000000010040000000TABLE001
TAB_1                          0040720001002402901300000000010040000000TABLE001
TAB_1                          0040730001002402801300000000010040000000TABLE001
TAB_1                          0040740001002402701300000000010040000000TABLE001
TAB_1                          0040750001002402601300000000010040000000TABLE001
TAB_1                          0040760001002402501300000000010040000000TABLE001
TAB_1                          0040770001002402401300000000010040000000TABLE001
TAB_1                          0040780001002402301300000000010040000000TABLE001
TAB_1                          0040790001002402201300000000010040000000TABLE001
TAB_1                          0040800001002402101300000000010040000000TABLE001
TAB_1                          0040810001002402001300000000010040000000TABLE001
TAB_1                          0040820001002401901300000000010040000000TABLE001
TAB_1                          0040830001002401801300000000010040000000TABLE001
TAB_1                          0040840001002401701300000000010040000000TABLE001
TAB_1                          0040850001002401601300000000010040000000TABLE001
TAB_1                          0040860001002401501300000000010040000000TABLE001
TAB_1                          0040870001002401401300000000010040000000TABLE001
TAB_1                          0040880001002401301300000000010040000000TABLE001
TAB_1                          0040890001002401201300000000010040000000TABLE001
TAB_1                          0040900001002401101300000000010040000000TABLE001
TAB_1                          0040910001002401001300000000010040000000TABLE001
TAB_1                          0040920001002400901300000000010040000000TABLE001
TAB_1                          0040930001002400801300000000010040000000TABLE001
TAB_1                          0040940001002400701300000000010040000000TABLE001
TAB_1                          0040950001002400601300000000010040000000TABLE001
TAB_1                          0040960001002400501300000000010040000000TABLE001
TAB_1                          0040970001002400401300000000010040000000TABLE001
TAB_1                          0040980001002400301300000000010040000000TABLE001
TAB_1                          0040990001002400201300000000010040000000TABLE001
TAB_1                          0041000001002400101300000000010040000000TABLE001
