1110000001060000001060080000081000000031\054\04200\134\146\000\000\000\000\000\000\000\00000100
PurchaseReferenceJan.hst
\120\165\162\143\150\141\163\145\122\145\146\145\162\145\156\143\145\112\141\156\056\143\163\166
\050545\101567\047325\051006\030352\030271\030310
AUTO_DATE000                   0010010001000000100500000000010020000000AUTO_DATE000
AUTO_PAGE001                   0020010001000000100400000000010010000000AUTO_PAGE001
AUTO_PAGE002                   0030010001000000100400000000010000000000AUTO_PAGE002
TAB_1                          0040020001002709901300000000010070000000TABLE01
ITEM_CD_1                      0050020009000000101201000000010030000000ITEM_CD_1
BRAND_CD_1                     0060020011000000101201000000010040000000BRAND_CD_1
USER_ID                        0070020022000000101201000000010050000000USER_ID
USER_NAME                      0080020023000000101201000000010060000000USER_NAME
TAB_1                          0040030001002709801300000000010070000000TABLE01
TAB_1                          0040040001002709701300000000010070000000TABLE01
TAB_1                          0040050001002709601300000000010070000000TABLE01
TAB_1                          0040060001002709501300000000010070000000TABLE01
TAB_1                          0040070001002709401300000000010070000000TABLE01
TAB_1                          0040080001002709301300000000010070000000TABLE01
TAB_1                          0040090001002709201300000000010070000000TABLE01
TAB_1                          0040100001002709101300000000010070000000TABLE01
TAB_1                          0040110001002709001300000000010070000000TABLE01
TAB_1                          0040120001002708901300000000010070000000TABLE01
TAB_1                          0040130001002708801300000000010070000000TABLE01
TAB_1                          0040140001002708701300000000010070000000TABLE01
TAB_1                          0040150001002708601300000000010070000000TABLE01
TAB_1                          0040160001002708501300000000010070000000TABLE01
TAB_1                          0040170001002708401300000000010070000000TABLE01
TAB_1                          0040180001002708301300000000010070000000TABLE01
TAB_1                          0040190001002708201300000000010070000000TABLE01
TAB_1                          0040200001002708101300000000010070000000TABLE01
TAB_1                          0040210001002708001300000000010070000000TABLE01
TAB_1                          0040220001002707901300000000010070000000TABLE01
TAB_1                          0040230001002707801300000000010070000000TABLE01
TAB_1                          0040240001002707701300000000010070000000TABLE01
TAB_1                          0040250001002707601300000000010070000000TABLE01
TAB_1                          0040260001002707501300000000010070000000TABLE01
TAB_1                          0040270001002707401300000000010070000000TABLE01
TAB_1                          0040280001002707301300000000010070000000TABLE01
TAB_1                          0040290001002707201300000000010070000000TABLE01
TAB_1                          0040300001002707101300000000010070000000TABLE01
TAB_1                          0040310001002707001300000000010070000000TABLE01
TAB_1                          0040320001002706901300000000010070000000TABLE01
TAB_1                          0040330001002706801300000000010070000000TABLE01
TAB_1                          0040340001002706701300000000010070000000TABLE01
TAB_1                          0040350001002706601300000000010070000000TABLE01
TAB_1                          0040360001002706501300000000010070000000TABLE01
TAB_1                          0040370001002706401300000000010070000000TABLE01
TAB_1                          0040380001002706301300000000010070000000TABLE01
TAB_1                          0040390001002706201300000000010070000000TABLE01
TAB_1                          0040400001002706101300000000010070000000TABLE01
TAB_1                          0040410001002706001300000000010070000000TABLE01
TAB_1                          0040420001002705901300000000010070000000TABLE01
TAB_1                          0040430001002705801300000000010070000000TABLE01
TAB_1                          0040440001002705701300000000010070000000TABLE01
TAB_1                          0040450001002705601300000000010070000000TABLE01
TAB_1                          0040460001002705501300000000010070000000TABLE01
TAB_1                          0040470001002705401300000000010070000000TABLE01
TAB_1                          0040480001002705301300000000010070000000TABLE01
TAB_1                          0040490001002705201300000000010070000000TABLE01
TAB_1                          0040500001002705101300000000010070000000TABLE01
TAB_1                          0040510001002705001300000000010070000000TABLE01
TAB_1                          0040520001002704901300000000010070000000TABLE01
TAB_1                          0040530001002704801300000000010070000000TABLE01
TAB_1                          0040540001002704701300000000010070000000TABLE01
TAB_1                          0040550001002704601300000000010070000000TABLE01
TAB_1                          0040560001002704501300000000010070000000TABLE01
TAB_1                          0040570001002704401300000000010070000000TABLE01
TAB_1                          0040580001002704301300000000010070000000TABLE01
TAB_1                          0040590001002704201300000000010070000000TABLE01
TAB_1                          0040600001002704101300000000010070000000TABLE01
TAB_1                          0040610001002704001300000000010070000000TABLE01
TAB_1                          0040620001002703901300000000010070000000TABLE01
TAB_1                          0040630001002703801300000000010070000000TABLE01
TAB_1                          0040640001002703701300000000010070000000TABLE01
TAB_1                          0040650001002703601300000000010070000000TABLE01
TAB_1                          0040660001002703501300000000010070000000TABLE01
TAB_1                          0040670001002703401300000000010070000000TABLE01
TAB_1                          0040680001002703301300000000010070000000TABLE01
TAB_1                          0040690001002703201300000000010070000000TABLE01
TAB_1                          0040700001002703101300000000010070000000TABLE01
TAB_1                          0040710001002703001300000000010070000000TABLE01
TAB_1                          0040720001002702901300000000010070000000TABLE01
TAB_1                          0040730001002702801300000000010070000000TABLE01
TAB_1                          0040740001002702701300000000010070000000TABLE01
TAB_1                          0040750001002702601300000000010070000000TABLE01
TAB_1                          0040760001002702501300000000010070000000TABLE01
TAB_1                          0040770001002702401300000000010070000000TABLE01
TAB_1                          0040780001002702301300000000010070000000TABLE01
TAB_1                          0040790001002702201300000000010070000000TABLE01
TAB_1                          0040800001002702101300000000010070000000TABLE01
TAB_1                          0040810001002702001300000000010070000000TABLE01
TAB_1                          0040820001002701901300000000010070000000TABLE01
TAB_1                          0040830001002701801300000000010070000000TABLE01
TAB_1                          0040840001002701701300000000010070000000TABLE01
TAB_1                          0040850001002701601300000000010070000000TABLE01
TAB_1                          0040860001002701501300000000010070000000TABLE01
TAB_1                          0040870001002701401300000000010070000000TABLE01
TAB_1                          0040880001002701301300000000010070000000TABLE01
TAB_1                          0040890001002701201300000000010070000000TABLE01
TAB_1                          0040900001002701101300000000010070000000TABLE01
TAB_1                          0040910001002701001300000000010070000000TABLE01
TAB_1                          0040920001002700901300000000010070000000TABLE01
TAB_1                          0040930001002700801300000000010070000000TABLE01
TAB_1                          0040940001002700701300000000010070000000TABLE01
TAB_1                          0040950001002700601300000000010070000000TABLE01
TAB_1                          0040960001002700501300000000010070000000TABLE01
TAB_1                          0040970001002700401300000000010070000000TABLE01
TAB_1                          0040980001002700301300000000010070000000TABLE01
TAB_1                          0040990001002700201300000000010070000000TABLE01
TAB_1                          0041000001002700101300000000010070000000TABLE01
