1111001001050000001050060000061000000016\054\04200\000\000\000\000\000\000\000\000\000\00000100
PurchaseReferencePacking.hst
\120\165\162\143\150\141\163\145\122\145\146\145\162\145\156\143\145\120\141\143\153\151\156\147\056\143\163\166

AUTO_DATE000                   0010010001000000100500000000010020000000AUTO_DATE000
AUTO_PAGE001                   0020010001000000100400000000010010000000AUTO_PAGE001
AUTO_PAGE002                   0030010001000000100400000000010000000000AUTO_PAGE002
TAB_1                          0040010001001610001300000000010050000000TABLE001
USER_ID                        0050010014000000101201000000010030000000
USER_NAME                      0060010016000000101201000000010040000000
TAB_1                          0040020001001609901300000000010050000000TABLE001
TAB_1                          0040030001001609801300000000010050000000TABLE001
TAB_1                          0040040001001609701300000000010050000000TABLE001
TAB_1                          0040050001001609601300000000010050000000TABLE001
TAB_1                          0040060001001609501300000000010050000000TABLE001
TAB_1                          0040070001001609401300000000010050000000TABLE001
TAB_1                          0040080001001609301300000000010050000000TABLE001
TAB_1                          0040090001001609201300000000010050000000TABLE001
TAB_1                          0040100001001609101300000000010050000000TABLE001
TAB_1                          0040110001001609001300000000010050000000TABLE001
TAB_1                          0040120001001608901300000000010050000000TABLE001
TAB_1                          0040130001001608801300000000010050000000TABLE001
TAB_1                          0040140001001608701300000000010050000000TABLE001
TAB_1                          0040150001001608601300000000010050000000TABLE001
TAB_1                          0040160001001608501300000000010050000000TABLE001
TAB_1                          0040170001001608401300000000010050000000TABLE001
TAB_1                          0040180001001608301300000000010050000000TABLE001
TAB_1                          0040190001001608201300000000010050000000TABLE001
TAB_1                          0040200001001608101300000000010050000000TABLE001
TAB_1                          0040210001001608001300000000010050000000TABLE001
TAB_1                          0040220001001607901300000000010050000000TABLE001
TAB_1                          0040230001001607801300000000010050000000TABLE001
TAB_1                          0040240001001607701300000000010050000000TABLE001
TAB_1                          0040250001001607601300000000010050000000TABLE001
TAB_1                          0040260001001607501300000000010050000000TABLE001
TAB_1                          0040270001001607401300000000010050000000TABLE001
TAB_1                          0040280001001607301300000000010050000000TABLE001
TAB_1                          0040290001001607201300000000010050000000TABLE001
TAB_1                          0040300001001607101300000000010050000000TABLE001
TAB_1                          0040310001001607001300000000010050000000TABLE001
TAB_1                          0040320001001606901300000000010050000000TABLE001
TAB_1                          0040330001001606801300000000010050000000TABLE001
TAB_1                          0040340001001606701300000000010050000000TABLE001
TAB_1                          0040350001001606601300000000010050000000TABLE001
TAB_1                          0040360001001606501300000000010050000000TABLE001
TAB_1                          0040370001001606401300000000010050000000TABLE001
TAB_1                          0040380001001606301300000000010050000000TABLE001
TAB_1                          0040390001001606201300000000010050000000TABLE001
TAB_1                          0040400001001606101300000000010050000000TABLE001
TAB_1                          0040410001001606001300000000010050000000TABLE001
TAB_1                          0040420001001605901300000000010050000000TABLE001
TAB_1                          0040430001001605801300000000010050000000TABLE001
TAB_1                          0040440001001605701300000000010050000000TABLE001
TAB_1                          0040450001001605601300000000010050000000TABLE001
TAB_1                          0040460001001605501300000000010050000000TABLE001
TAB_1                          0040470001001605401300000000010050000000TABLE001
TAB_1                          0040480001001605301300000000010050000000TABLE001
TAB_1                          0040490001001605201300000000010050000000TABLE001
TAB_1                          0040500001001605101300000000010050000000TABLE001
TAB_1                          0040510001001605001300000000010050000000TABLE001
TAB_1                          0040520001001604901300000000010050000000TABLE001
TAB_1                          0040530001001604801300000000010050000000TABLE001
TAB_1                          0040540001001604701300000000010050000000TABLE001
TAB_1                          0040550001001604601300000000010050000000TABLE001
TAB_1                          0040560001001604501300000000010050000000TABLE001
TAB_1                          0040570001001604401300000000010050000000TABLE001
TAB_1                          0040580001001604301300000000010050000000TABLE001
TAB_1                          0040590001001604201300000000010050000000TABLE001
TAB_1                          0040600001001604101300000000010050000000TABLE001
TAB_1                          0040610001001604001300000000010050000000TABLE001
TAB_1                          0040620001001603901300000000010050000000TABLE001
TAB_1                          0040630001001603801300000000010050000000TABLE001
TAB_1                          0040640001001603701300000000010050000000TABLE001
TAB_1                          0040650001001603601300000000010050000000TABLE001
TAB_1                          0040660001001603501300000000010050000000TABLE001
TAB_1                          0040670001001603401300000000010050000000TABLE001
TAB_1                          0040680001001603301300000000010050000000TABLE001
TAB_1                          0040690001001603201300000000010050000000TABLE001
TAB_1                          0040700001001603101300000000010050000000TABLE001
TAB_1                          0040710001001603001300000000010050000000TABLE001
TAB_1                          0040720001001602901300000000010050000000TABLE001
TAB_1                          0040730001001602801300000000010050000000TABLE001
TAB_1                          0040740001001602701300000000010050000000TABLE001
TAB_1                          0040750001001602601300000000010050000000TABLE001
TAB_1                          0040760001001602501300000000010050000000TABLE001
TAB_1                          0040770001001602401300000000010050000000TABLE001
TAB_1                          0040780001001602301300000000010050000000TABLE001
TAB_1                          0040790001001602201300000000010050000000TABLE001
TAB_1                          0040800001001602101300000000010050000000TABLE001
TAB_1                          0040810001001602001300000000010050000000TABLE001
TAB_1                          0040820001001601901300000000010050000000TABLE001
TAB_1                          0040830001001601801300000000010050000000TABLE001
TAB_1                          0040840001001601701300000000010050000000TABLE001
TAB_1                          0040850001001601601300000000010050000000TABLE001
TAB_1                          0040860001001601501300000000010050000000TABLE001
TAB_1                          0040870001001601401300000000010050000000TABLE001
TAB_1                          0040880001001601301300000000010050000000TABLE001
TAB_1                          0040890001001601201300000000010050000000TABLE001
TAB_1                          0040900001001601101300000000010050000000TABLE001
TAB_1                          0040910001001601001300000000010050000000TABLE001
TAB_1                          0040920001001600901300000000010050000000TABLE001
TAB_1                          0040930001001600801300000000010050000000TABLE001
TAB_1                          0040940001001600701300000000010050000000TABLE001
TAB_1                          0040950001001600601300000000010050000000TABLE001
TAB_1                          0040960001001600501300000000010050000000TABLE001
TAB_1                          0040970001001600401300000000010050000000TABLE001
TAB_1                          0040980001001600301300000000010050000000TABLE001
TAB_1                          0040990001001600201300000000010050000000TABLE001
TAB_1                          0041000001001600101300000000010050000000TABLE001
