1110000001060000001060080000081000000034\054\04200\134\146\000\000\000\000\000\000\000\00000100
ResearchReference.hst
\122\145\163\145\141\162\143\150\122\145\146\145\162\145\156\143\145\056\143\163\166
\053450\057253\105277\063773\074272\105215\030301\030247\030303\030257\030352\030271\030310
AUTO_PAGE001                   0010010001000000100400000000010020000000AUTO_PAGE001
AUTO_PAGE002                   0020010001000000100400000000010010000000AUTO_PAGE002
AUTO_DATE000                   0030010001000000100500000000010000000000AUTO_DATE000
CENTER_ID                      0040020001000000101201000000010030000000
CENTER_NAME                    0050020002000000101201000000010040000000
USER                           0060020003000000101201000000010050000000
USER_NAME                      0070020004000000101201000000010060000000
TAB_1                          0080020005002809901300000000010070000000TABLE001
TAB_1                          0080030005002809801300000000010070000000TABLE001
TAB_1                          0080040005002809701300000000010070000000TABLE001
TAB_1                          0080050005002809601300000000010070000000TABLE001
TAB_1                          0080060005002809501300000000010070000000TABLE001
TAB_1                          0080070005002809401300000000010070000000TABLE001
TAB_1                          0080080005002809301300000000010070000000TABLE001
TAB_1                          0080090005002809201300000000010070000000TABLE001
TAB_1                          0080100005002809101300000000010070000000TABLE001
TAB_1                          0080110005002809001300000000010070000000TABLE001
TAB_1                          0080120005002808901300000000010070000000TABLE001
TAB_1                          0080130005002808801300000000010070000000TABLE001
TAB_1                          0080140005002808701300000000010070000000TABLE001
TAB_1                          0080150005002808601300000000010070000000TABLE001
TAB_1                          0080160005002808501300000000010070000000TABLE001
TAB_1                          0080170005002808401300000000010070000000TABLE001
TAB_1                          0080180005002808301300000000010070000000TABLE001
TAB_1                          0080190005002808201300000000010070000000TABLE001
TAB_1                          0080200005002808101300000000010070000000TABLE001
TAB_1                          0080210005002808001300000000010070000000TABLE001
TAB_1                          0080220005002807901300000000010070000000TABLE001
TAB_1                          0080230005002807801300000000010070000000TABLE001
TAB_1                          0080240005002807701300000000010070000000TABLE001
TAB_1                          0080250005002807601300000000010070000000TABLE001
TAB_1                          0080260005002807501300000000010070000000TABLE001
TAB_1                          0080270005002807401300000000010070000000TABLE001
TAB_1                          0080280005002807301300000000010070000000TABLE001
TAB_1                          0080290005002807201300000000010070000000TABLE001
TAB_1                          0080300005002807101300000000010070000000TABLE001
TAB_1                          0080310005002807001300000000010070000000TABLE001
TAB_1                          0080320005002806901300000000010070000000TABLE001
TAB_1                          0080330005002806801300000000010070000000TABLE001
TAB_1                          0080340005002806701300000000010070000000TABLE001
TAB_1                          0080350005002806601300000000010070000000TABLE001
TAB_1                          0080360005002806501300000000010070000000TABLE001
TAB_1                          0080370005002806401300000000010070000000TABLE001
TAB_1                          0080380005002806301300000000010070000000TABLE001
TAB_1                          0080390005002806201300000000010070000000TABLE001
TAB_1                          0080400005002806101300000000010070000000TABLE001
TAB_1                          0080410005002806001300000000010070000000TABLE001
TAB_1                          0080420005002805901300000000010070000000TABLE001
TAB_1                          0080430005002805801300000000010070000000TABLE001
TAB_1                          0080440005002805701300000000010070000000TABLE001
TAB_1                          0080450005002805601300000000010070000000TABLE001
TAB_1                          0080460005002805501300000000010070000000TABLE001
TAB_1                          0080470005002805401300000000010070000000TABLE001
TAB_1                          0080480005002805301300000000010070000000TABLE001
TAB_1                          0080490005002805201300000000010070000000TABLE001
TAB_1                          0080500005002805101300000000010070000000TABLE001
TAB_1                          0080510005002805001300000000010070000000TABLE001
TAB_1                          0080520005002804901300000000010070000000TABLE001
TAB_1                          0080530005002804801300000000010070000000TABLE001
TAB_1                          0080540005002804701300000000010070000000TABLE001
TAB_1                          0080550005002804601300000000010070000000TABLE001
TAB_1                          0080560005002804501300000000010070000000TABLE001
TAB_1                          0080570005002804401300000000010070000000TABLE001
TAB_1                          0080580005002804301300000000010070000000TABLE001
TAB_1                          0080590005002804201300000000010070000000TABLE001
TAB_1                          0080600005002804101300000000010070000000TABLE001
TAB_1                          0080610005002804001300000000010070000000TABLE001
TAB_1                          0080620005002803901300000000010070000000TABLE001
TAB_1                          0080630005002803801300000000010070000000TABLE001
TAB_1                          0080640005002803701300000000010070000000TABLE001
TAB_1                          0080650005002803601300000000010070000000TABLE001
TAB_1                          0080660005002803501300000000010070000000TABLE001
TAB_1                          0080670005002803401300000000010070000000TABLE001
TAB_1                          0080680005002803301300000000010070000000TABLE001
TAB_1                          0080690005002803201300000000010070000000TABLE001
TAB_1                          0080700005002803101300000000010070000000TABLE001
TAB_1                          0080710005002803001300000000010070000000TABLE001
TAB_1                          0080720005002802901300000000010070000000TABLE001
TAB_1                          0080730005002802801300000000010070000000TABLE001
TAB_1                          0080740005002802701300000000010070000000TABLE001
TAB_1                          0080750005002802601300000000010070000000TABLE001
TAB_1                          0080760005002802501300000000010070000000TABLE001
TAB_1                          0080770005002802401300000000010070000000TABLE001
TAB_1                          0080780005002802301300000000010070000000TABLE001
TAB_1                          0080790005002802201300000000010070000000TABLE001
TAB_1                          0080800005002802101300000000010070000000TABLE001
TAB_1                          0080810005002802001300000000010070000000TABLE001
TAB_1                          0080820005002801901300000000010070000000TABLE001
TAB_1                          0080830005002801801300000000010070000000TABLE001
TAB_1                          0080840005002801701300000000010070000000TABLE001
TAB_1                          0080850005002801601300000000010070000000TABLE001
TAB_1                          0080860005002801501300000000010070000000TABLE001
TAB_1                          0080870005002801401300000000010070000000TABLE001
TAB_1                          0080880005002801301300000000010070000000TABLE001
TAB_1                          0080890005002801201300000000010070000000TABLE001
TAB_1                          0080900005002801101300000000010070000000TABLE001
TAB_1                          0080910005002801001300000000010070000000TABLE001
TAB_1                          0080920005002800901300000000010070000000TABLE001
TAB_1                          0080930005002800801300000000010070000000TABLE001
TAB_1                          0080940005002800701300000000010070000000TABLE001
TAB_1                          0080950005002800601300000000010070000000TABLE001
TAB_1                          0080960005002800501300000000010070000000TABLE001
TAB_1                          0080970005002800401300000000010070000000TABLE001
TAB_1                          0080980005002800301300000000010070000000TABLE001
TAB_1                          0080990005002800201300000000010070000000TABLE001
TAB_1                          0081000005002800101300000000010070000000TABLE001
