1110000001050000001050070000071000000020\054\04200\134\146\000\000\000\000\000\000\000\00000100
StocksJan.hst
\123\164\157\143\153\056\143\163\166
\053450\057253\070547\047432\030352\030271\030310
AUTO_PAGE001                   0010010001000000100400000000010020000000AUTO_PAGE001
AUTO_PAGE002                   0020010001000000100400000000010010000000AUTO_PAGE002
AUTO_DATE000                   0030010001000000100500000000010000000000AUTO_DATE000
CENTER                         0040020001000000101201000000010030000000
TAB_1                          0050020001001909901300000000010060000000TABLE001
AREAID                         0060020002000000101201000000010040000000
USER                           0070020003000000101201000000010050000000
TAB_1                          0050030001001909801300000000010060000000TABLE001
TAB_1                          0050040001001909701300000000010060000000TABLE001
TAB_1                          0050050001001909601300000000010060000000TABLE001
TAB_1                          0050060001001909501300000000010060000000TABLE001
TAB_1                          0050070001001909401300000000010060000000TABLE001
TAB_1                          0050080001001909301300000000010060000000TABLE001
TAB_1                          0050090001001909201300000000010060000000TABLE001
TAB_1                          0050100001001909101300000000010060000000TABLE001
TAB_1                          0050110001001909001300000000010060000000TABLE001
TAB_1                          0050120001001908901300000000010060000000TABLE001
TAB_1                          0050130001001908801300000000010060000000TABLE001
TAB_1                          0050140001001908701300000000010060000000TABLE001
TAB_1                          0050150001001908601300000000010060000000TABLE001
TAB_1                          0050160001001908501300000000010060000000TABLE001
TAB_1                          0050170001001908401300000000010060000000TABLE001
TAB_1                          0050180001001908301300000000010060000000TABLE001
TAB_1                          0050190001001908201300000000010060000000TABLE001
TAB_1                          0050200001001908101300000000010060000000TABLE001
TAB_1                          0050210001001908001300000000010060000000TABLE001
TAB_1                          0050220001001907901300000000010060000000TABLE001
TAB_1                          0050230001001907801300000000010060000000TABLE001
TAB_1                          0050240001001907701300000000010060000000TABLE001
TAB_1                          0050250001001907601300000000010060000000TABLE001
TAB_1                          0050260001001907501300000000010060000000TABLE001
TAB_1                          0050270001001907401300000000010060000000TABLE001
TAB_1                          0050280001001907301300000000010060000000TABLE001
TAB_1                          0050290001001907201300000000010060000000TABLE001
TAB_1                          0050300001001907101300000000010060000000TABLE001
TAB_1                          0050310001001907001300000000010060000000TABLE001
TAB_1                          0050320001001906901300000000010060000000TABLE001
TAB_1                          0050330001001906801300000000010060000000TABLE001
TAB_1                          0050340001001906701300000000010060000000TABLE001
TAB_1                          0050350001001906601300000000010060000000TABLE001
TAB_1                          0050360001001906501300000000010060000000TABLE001
TAB_1                          0050370001001906401300000000010060000000TABLE001
TAB_1                          0050380001001906301300000000010060000000TABLE001
TAB_1                          0050390001001906201300000000010060000000TABLE001
TAB_1                          0050400001001906101300000000010060000000TABLE001
TAB_1                          0050410001001906001300000000010060000000TABLE001
TAB_1                          0050420001001905901300000000010060000000TABLE001
TAB_1                          0050430001001905801300000000010060000000TABLE001
TAB_1                          0050440001001905701300000000010060000000TABLE001
TAB_1                          0050450001001905601300000000010060000000TABLE001
TAB_1                          0050460001001905501300000000010060000000TABLE001
TAB_1                          0050470001001905401300000000010060000000TABLE001
TAB_1                          0050480001001905301300000000010060000000TABLE001
TAB_1                          0050490001001905201300000000010060000000TABLE001
TAB_1                          0050500001001905101300000000010060000000TABLE001
TAB_1                          0050510001001905001300000000010060000000TABLE001
TAB_1                          0050520001001904901300000000010060000000TABLE001
TAB_1                          0050530001001904801300000000010060000000TABLE001
TAB_1                          0050540001001904701300000000010060000000TABLE001
TAB_1                          0050550001001904601300000000010060000000TABLE001
TAB_1                          0050560001001904501300000000010060000000TABLE001
TAB_1                          0050570001001904401300000000010060000000TABLE001
TAB_1                          0050580001001904301300000000010060000000TABLE001
TAB_1                          0050590001001904201300000000010060000000TABLE001
TAB_1                          0050600001001904101300000000010060000000TABLE001
TAB_1                          0050610001001904001300000000010060000000TABLE001
TAB_1                          0050620001001903901300000000010060000000TABLE001
TAB_1                          0050630001001903801300000000010060000000TABLE001
TAB_1                          0050640001001903701300000000010060000000TABLE001
TAB_1                          0050650001001903601300000000010060000000TABLE001
TAB_1                          0050660001001903501300000000010060000000TABLE001
TAB_1                          0050670001001903401300000000010060000000TABLE001
TAB_1                          0050680001001903301300000000010060000000TABLE001
TAB_1                          0050690001001903201300000000010060000000TABLE001
TAB_1                          0050700001001903101300000000010060000000TABLE001
TAB_1                          0050710001001903001300000000010060000000TABLE001
TAB_1                          0050720001001902901300000000010060000000TABLE001
TAB_1                          0050730001001902801300000000010060000000TABLE001
TAB_1                          0050740001001902701300000000010060000000TABLE001
TAB_1                          0050750001001902601300000000010060000000TABLE001
TAB_1                          0050760001001902501300000000010060000000TABLE001
TAB_1                          0050770001001902401300000000010060000000TABLE001
TAB_1                          0050780001001902301300000000010060000000TABLE001
TAB_1                          0050790001001902201300000000010060000000TABLE001
TAB_1                          0050800001001902101300000000010060000000TABLE001
TAB_1                          0050810001001902001300000000010060000000TABLE001
TAB_1                          0050820001001901901300000000010060000000TABLE001
TAB_1                          0050830001001901801300000000010060000000TABLE001
TAB_1                          0050840001001901701300000000010060000000TABLE001
TAB_1                          0050850001001901601300000000010060000000TABLE001
TAB_1                          0050860001001901501300000000010060000000TABLE001
TAB_1                          0050870001001901401300000000010060000000TABLE001
TAB_1                          0050880001001901301300000000010060000000TABLE001
TAB_1                          0050890001001901201300000000010060000000TABLE001
TAB_1                          0050900001001901101300000000010060000000TABLE001
TAB_1                          0050910001001901001300000000010060000000TABLE001
TAB_1                          0050920001001900901300000000010060000000TABLE001
TAB_1                          0050930001001900801300000000010060000000TABLE001
TAB_1                          0050940001001900701300000000010060000000TABLE001
TAB_1                          0050950001001900601300000000010060000000TABLE001
TAB_1                          0050960001001900501300000000010060000000TABLE001
TAB_1                          0050970001001900401300000000010060000000TABLE001
TAB_1                          0050980001001900301300000000010060000000TABLE001
TAB_1                          0050990001001900201300000000010060000000TABLE001
TAB_1                          0051000001001900101300000000010060000000TABLE001
