1110000001080000001080100000101000000030\054\04200\134\146\000\000\000\000\000\000\000\00000100
TotalPickingJan.hst
\124\157\164\141\154\120\151\143\153\151\156\147\112\141\156\056\143\163\166
\030310\030374\030277\030353\030324\030303\030255\030363\030260\030352\030271\030310
AUTO_PAGE001                   0010010001000000100400000000010020000000AUTO_PAGE001
AUTO_PAGE002                   0020010001000000100400000000010010000000AUTO_PAGE002
AUTO_DATE000                   0030010001000000100500000000010000000000AUTO_DATE000
CENTER                         0040020001000000101201000000010030000000
TAB_1                          0050020001002609901300000000010090000000TABLE01
BATCH_NO                       0060020002000000101201000000010040000000
BATCH_NAME                     0070020004000000101201000000010050000000
AREA                           0080020005000000101201000000010060000000
PICKING_GROUP_NO               0090020006000000101201000000010070000000
USER                           0100020008000000101201000000010080000000
TAB_1                          0050030001002609801300000000010090000000TABLE01
TAB_1                          0050040001002609701300000000010090000000TABLE01
TAB_1                          0050050001002609601300000000010090000000TABLE01
TAB_1                          0050060001002609501300000000010090000000TABLE01
TAB_1                          0050070001002609401300000000010090000000TABLE01
TAB_1                          0050080001002609301300000000010090000000TABLE01
TAB_1                          0050090001002609201300000000010090000000TABLE01
TAB_1                          0050100001002609101300000000010090000000TABLE01
TAB_1                          0050110001002609001300000000010090000000TABLE01
TAB_1                          0050120001002608901300000000010090000000TABLE01
TAB_1                          0050130001002608801300000000010090000000TABLE01
TAB_1                          0050140001002608701300000000010090000000TABLE01
TAB_1                          0050150001002608601300000000010090000000TABLE01
TAB_1                          0050160001002608501300000000010090000000TABLE01
TAB_1                          0050170001002608401300000000010090000000TABLE01
TAB_1                          0050180001002608301300000000010090000000TABLE01
TAB_1                          0050190001002608201300000000010090000000TABLE01
TAB_1                          0050200001002608101300000000010090000000TABLE01
TAB_1                          0050210001002608001300000000010090000000TABLE01
TAB_1                          0050220001002607901300000000010090000000TABLE01
TAB_1                          0050230001002607801300000000010090000000TABLE01
TAB_1                          0050240001002607701300000000010090000000TABLE01
TAB_1                          0050250001002607601300000000010090000000TABLE01
TAB_1                          0050260001002607501300000000010090000000TABLE01
TAB_1                          0050270001002607401300000000010090000000TABLE01
TAB_1                          0050280001002607301300000000010090000000TABLE01
TAB_1                          0050290001002607201300000000010090000000TABLE01
TAB_1                          0050300001002607101300000000010090000000TABLE01
TAB_1                          0050310001002607001300000000010090000000TABLE01
TAB_1                          0050320001002606901300000000010090000000TABLE01
TAB_1                          0050330001002606801300000000010090000000TABLE01
TAB_1                          0050340001002606701300000000010090000000TABLE01
TAB_1                          0050350001002606601300000000010090000000TABLE01
TAB_1                          0050360001002606501300000000010090000000TABLE01
TAB_1                          0050370001002606401300000000010090000000TABLE01
TAB_1                          0050380001002606301300000000010090000000TABLE01
TAB_1                          0050390001002606201300000000010090000000TABLE01
TAB_1                          0050400001002606101300000000010090000000TABLE01
TAB_1                          0050410001002606001300000000010090000000TABLE01
TAB_1                          0050420001002605901300000000010090000000TABLE01
TAB_1                          0050430001002605801300000000010090000000TABLE01
TAB_1                          0050440001002605701300000000010090000000TABLE01
TAB_1                          0050450001002605601300000000010090000000TABLE01
TAB_1                          0050460001002605501300000000010090000000TABLE01
TAB_1                          0050470001002605401300000000010090000000TABLE01
TAB_1                          0050480001002605301300000000010090000000TABLE01
TAB_1                          0050490001002605201300000000010090000000TABLE01
TAB_1                          0050500001002605101300000000010090000000TABLE01
TAB_1                          0050510001002605001300000000010090000000TABLE01
TAB_1                          0050520001002604901300000000010090000000TABLE01
TAB_1                          0050530001002604801300000000010090000000TABLE01
TAB_1                          0050540001002604701300000000010090000000TABLE01
TAB_1                          0050550001002604601300000000010090000000TABLE01
TAB_1                          0050560001002604501300000000010090000000TABLE01
TAB_1                          0050570001002604401300000000010090000000TABLE01
TAB_1                          0050580001002604301300000000010090000000TABLE01
TAB_1                          0050590001002604201300000000010090000000TABLE01
TAB_1                          0050600001002604101300000000010090000000TABLE01
TAB_1                          0050610001002604001300000000010090000000TABLE01
TAB_1                          0050620001002603901300000000010090000000TABLE01
TAB_1                          0050630001002603801300000000010090000000TABLE01
TAB_1                          0050640001002603701300000000010090000000TABLE01
TAB_1                          0050650001002603601300000000010090000000TABLE01
TAB_1                          0050660001002603501300000000010090000000TABLE01
TAB_1                          0050670001002603401300000000010090000000TABLE01
TAB_1                          0050680001002603301300000000010090000000TABLE01
TAB_1                          0050690001002603201300000000010090000000TABLE01
TAB_1                          0050700001002603101300000000010090000000TABLE01
TAB_1                          0050710001002603001300000000010090000000TABLE01
TAB_1                          0050720001002602901300000000010090000000TABLE01
TAB_1                          0050730001002602801300000000010090000000TABLE01
TAB_1                          0050740001002602701300000000010090000000TABLE01
TAB_1                          0050750001002602601300000000010090000000TABLE01
TAB_1                          0050760001002602501300000000010090000000TABLE01
TAB_1                          0050770001002602401300000000010090000000TABLE01
TAB_1                          0050780001002602301300000000010090000000TABLE01
TAB_1                          0050790001002602201300000000010090000000TABLE01
TAB_1                          0050800001002602101300000000010090000000TABLE01
TAB_1                          0050810001002602001300000000010090000000TABLE01
TAB_1                          0050820001002601901300000000010090000000TABLE01
TAB_1                          0050830001002601801300000000010090000000TABLE01
TAB_1                          0050840001002601701300000000010090000000TABLE01
TAB_1                          0050850001002601601300000000010090000000TABLE01
TAB_1                          0050860001002601501300000000010090000000TABLE01
TAB_1                          0050870001002601401300000000010090000000TABLE01
TAB_1                          0050880001002601301300000000010090000000TABLE01
TAB_1                          0050890001002601201300000000010090000000TABLE01
TAB_1                          0050900001002601101300000000010090000000TABLE01
TAB_1                          0050910001002601001300000000010090000000TABLE01
TAB_1                          0050920001002600901300000000010090000000TABLE01
TAB_1                          0050930001002600801300000000010090000000TABLE01
TAB_1                          0050940001002600701300000000010090000000TABLE01
TAB_1                          0050950001002600601300000000010090000000TABLE01
TAB_1                          0050960001002600501300000000010090000000TABLE01
TAB_1                          0050970001002600401300000000010090000000TABLE01
TAB_1                          0050980001002600301300000000010090000000TABLE01
TAB_1                          0050990001002600201300000000010090000000TABLE01
TAB_1                          0051000001002600101300000000010090000000TABLE01
