1110000001050000001050070000071000000020\054\04200\134\146\000\000\000\000\000\000\000\00000100
TransferReferenceBaseMove.hst
\124\162\141\156\163\146\145\162\122\145\146\145\162\145\156\143\145\056\143\163\166
\053450\057253\070547\047432\030352\030271\030310\177410\030261\030374\030271\063016\076460\177411
AUTO_DATE001                   0010010001000000100500000000010020000000AUTO_DATE001
AUTO_PAGE002                   0020010001000000100400000000010010000000AUTO_PAGE002
AUTO_PAGE001                   0030010001000000100400000000010000000000AUTO_PAGE001
TAB_1                          0040020001001509901300000000010060000000TABLE001
CENTER                         0050020002000000101201000000010040000000
CENTER_NAME                    0060020003000000101201000000010030000000
USER                           0070020015000000101201000000010050000000
TAB_1                          0040030001001509801300000000010060000000TABLE001
TAB_1                          0040040001001509701300000000010060000000TABLE001
TAB_1                          0040050001001509601300000000010060000000TABLE001
TAB_1                          0040060001001509501300000000010060000000TABLE001
TAB_1                          0040070001001509401300000000010060000000TABLE001
TAB_1                          0040080001001509301300000000010060000000TABLE001
TAB_1                          0040090001001509201300000000010060000000TABLE001
TAB_1                          0040100001001509101300000000010060000000TABLE001
TAB_1                          0040110001001509001300000000010060000000TABLE001
TAB_1                          0040120001001508901300000000010060000000TABLE001
TAB_1                          0040130001001508801300000000010060000000TABLE001
TAB_1                          0040140001001508701300000000010060000000TABLE001
TAB_1                          0040150001001508601300000000010060000000TABLE001
TAB_1                          0040160001001508501300000000010060000000TABLE001
TAB_1                          0040170001001508401300000000010060000000TABLE001
TAB_1                          0040180001001508301300000000010060000000TABLE001
TAB_1                          0040190001001508201300000000010060000000TABLE001
TAB_1                          0040200001001508101300000000010060000000TABLE001
TAB_1                          0040210001001508001300000000010060000000TABLE001
TAB_1                          0040220001001507901300000000010060000000TABLE001
TAB_1                          0040230001001507801300000000010060000000TABLE001
TAB_1                          0040240001001507701300000000010060000000TABLE001
TAB_1                          0040250001001507601300000000010060000000TABLE001
TAB_1                          0040260001001507501300000000010060000000TABLE001
TAB_1                          0040270001001507401300000000010060000000TABLE001
TAB_1                          0040280001001507301300000000010060000000TABLE001
TAB_1                          0040290001001507201300000000010060000000TABLE001
TAB_1                          0040300001001507101300000000010060000000TABLE001
TAB_1                          0040310001001507001300000000010060000000TABLE001
TAB_1                          0040320001001506901300000000010060000000TABLE001
TAB_1                          0040330001001506801300000000010060000000TABLE001
TAB_1                          0040340001001506701300000000010060000000TABLE001
TAB_1                          0040350001001506601300000000010060000000TABLE001
TAB_1                          0040360001001506501300000000010060000000TABLE001
TAB_1                          0040370001001506401300000000010060000000TABLE001
TAB_1                          0040380001001506301300000000010060000000TABLE001
TAB_1                          0040390001001506201300000000010060000000TABLE001
TAB_1                          0040400001001506101300000000010060000000TABLE001
TAB_1                          0040410001001506001300000000010060000000TABLE001
TAB_1                          0040420001001505901300000000010060000000TABLE001
TAB_1                          0040430001001505801300000000010060000000TABLE001
TAB_1                          0040440001001505701300000000010060000000TABLE001
TAB_1                          0040450001001505601300000000010060000000TABLE001
TAB_1                          0040460001001505501300000000010060000000TABLE001
TAB_1                          0040470001001505401300000000010060000000TABLE001
TAB_1                          0040480001001505301300000000010060000000TABLE001
TAB_1                          0040490001001505201300000000010060000000TABLE001
TAB_1                          0040500001001505101300000000010060000000TABLE001
TAB_1                          0040510001001505001300000000010060000000TABLE001
TAB_1                          0040520001001504901300000000010060000000TABLE001
TAB_1                          0040530001001504801300000000010060000000TABLE001
TAB_1                          0040540001001504701300000000010060000000TABLE001
TAB_1                          0040550001001504601300000000010060000000TABLE001
TAB_1                          0040560001001504501300000000010060000000TABLE001
TAB_1                          0040570001001504401300000000010060000000TABLE001
TAB_1                          0040580001001504301300000000010060000000TABLE001
TAB_1                          0040590001001504201300000000010060000000TABLE001
TAB_1                          0040600001001504101300000000010060000000TABLE001
TAB_1                          0040610001001504001300000000010060000000TABLE001
TAB_1                          0040620001001503901300000000010060000000TABLE001
TAB_1                          0040630001001503801300000000010060000000TABLE001
TAB_1                          0040640001001503701300000000010060000000TABLE001
TAB_1                          0040650001001503601300000000010060000000TABLE001
TAB_1                          0040660001001503501300000000010060000000TABLE001
TAB_1                          0040670001001503401300000000010060000000TABLE001
TAB_1                          0040680001001503301300000000010060000000TABLE001
TAB_1                          0040690001001503201300000000010060000000TABLE001
TAB_1                          0040700001001503101300000000010060000000TABLE001
TAB_1                          0040710001001503001300000000010060000000TABLE001
TAB_1                          0040720001001502901300000000010060000000TABLE001
TAB_1                          0040730001001502801300000000010060000000TABLE001
TAB_1                          0040740001001502701300000000010060000000TABLE001
TAB_1                          0040750001001502601300000000010060000000TABLE001
TAB_1                          0040760001001502501300000000010060000000TABLE001
TAB_1                          0040770001001502401300000000010060000000TABLE001
TAB_1                          0040780001001502301300000000010060000000TABLE001
TAB_1                          0040790001001502201300000000010060000000TABLE001
TAB_1                          0040800001001502101300000000010060000000TABLE001
TAB_1                          0040810001001502001300000000010060000000TABLE001
TAB_1                          0040820001001501901300000000010060000000TABLE001
TAB_1                          0040830001001501801300000000010060000000TABLE001
TAB_1                          0040840001001501701300000000010060000000TABLE001
TAB_1                          0040850001001501601300000000010060000000TABLE001
TAB_1                          0040860001001501501300000000010060000000TABLE001
TAB_1                          0040870001001501401300000000010060000000TABLE001
TAB_1                          0040880001001501301300000000010060000000TABLE001
TAB_1                          0040890001001501201300000000010060000000TABLE001
TAB_1                          0040900001001501101300000000010060000000TABLE001
TAB_1                          0040910001001501001300000000010060000000TABLE001
TAB_1                          0040920001001500901300000000010060000000TABLE001
TAB_1                          0040930001001500801300000000010060000000TABLE001
TAB_1                          0040940001001500701300000000010060000000TABLE001
TAB_1                          0040950001001500601300000000010060000000TABLE001
TAB_1                          0040960001001500501300000000010060000000TABLE001
TAB_1                          0040970001001500401300000000010060000000TABLE001
TAB_1                          0040980001001500301300000000010060000000TABLE001
TAB_1                          0040990001001500201300000000010060000000TABLE001
TAB_1                          0041000001001500101300000000010060000000TABLE001
